{
  "contractName": "MintPunks",
  "abi": [
    {
      "inputs": [],
      "stateMutability": "payable",
      "type": "constructor",
      "payable": true
    },
    {
      "anonymous": false,
      "inputs": [
        {
          "indexed": true,
          "internalType": "address",
          "name": "owner",
          "type": "address"
        },
        {
          "indexed": true,
          "internalType": "address",
          "name": "approved",
          "type": "address"
        },
        {
          "indexed": true,
          "internalType": "uint256",
          "name": "tokenId",
          "type": "uint256"
        }
      ],
      "name": "Approval",
      "type": "event"
    },
    {
      "anonymous": false,
      "inputs": [
        {
          "indexed": true,
          "internalType": "address",
          "name": "owner",
          "type": "address"
        },
        {
          "indexed": true,
          "internalType": "address",
          "name": "operator",
          "type": "address"
        },
        {
          "indexed": false,
          "internalType": "bool",
          "name": "approved",
          "type": "bool"
        }
      ],
      "name": "ApprovalForAll",
      "type": "event"
    },
    {
      "anonymous": false,
      "inputs": [
        {
          "indexed": true,
          "internalType": "contract IERC20",
          "name": "token",
          "type": "address"
        },
        {
          "indexed": false,
          "internalType": "address",
          "name": "to",
          "type": "address"
        },
        {
          "indexed": false,
          "internalType": "uint256",
          "name": "amount",
          "type": "uint256"
        }
      ],
      "name": "ERC20PaymentReleased",
      "type": "event"
    },
    {
      "anonymous": false,
      "inputs": [
        {
          "indexed": false,
          "internalType": "address",
          "name": "account",
          "type": "address"
        },
        {
          "indexed": false,
          "internalType": "uint256",
          "name": "shares",
          "type": "uint256"
        }
      ],
      "name": "PayeeAdded",
      "type": "event"
    },
    {
      "anonymous": false,
      "inputs": [
        {
          "indexed": false,
          "internalType": "address",
          "name": "from",
          "type": "address"
        },
        {
          "indexed": false,
          "internalType": "uint256",
          "name": "amount",
          "type": "uint256"
        }
      ],
      "name": "PaymentReceived",
      "type": "event"
    },
    {
      "anonymous": false,
      "inputs": [
        {
          "indexed": false,
          "internalType": "address",
          "name": "to",
          "type": "address"
        },
        {
          "indexed": false,
          "internalType": "uint256",
          "name": "amount",
          "type": "uint256"
        }
      ],
      "name": "PaymentReleased",
      "type": "event"
    },
    {
      "anonymous": false,
      "inputs": [
        {
          "indexed": true,
          "internalType": "address",
          "name": "from",
          "type": "address"
        },
        {
          "indexed": true,
          "internalType": "address",
          "name": "to",
          "type": "address"
        },
        {
          "indexed": true,
          "internalType": "uint256",
          "name": "tokenId",
          "type": "uint256"
        }
      ],
      "name": "Transfer",
      "type": "event"
    },
    {
      "inputs": [],
      "name": "MAX_PURCHASE",
      "outputs": [
        {
          "internalType": "uint128",
          "name": "",
          "type": "uint128"
        }
      ],
      "stateMutability": "view",
      "type": "function",
      "constant": true
    },
    {
      "inputs": [],
      "name": "MAX_SUPPLY",
      "outputs": [
        {
          "internalType": "uint128",
          "name": "",
          "type": "uint128"
        }
      ],
      "stateMutability": "view",
      "type": "function",
      "constant": true
    },
    {
      "inputs": [],
      "name": "TOKEN_PRICE",
      "outputs": [
        {
          "internalType": "uint256",
          "name": "",
          "type": "uint256"
        }
      ],
      "stateMutability": "view",
      "type": "function",
      "constant": true
    },
    {
      "inputs": [
        {
          "internalType": "address",
          "name": "to",
          "type": "address"
        },
        {
          "internalType": "uint256",
          "name": "tokenId",
          "type": "uint256"
        }
      ],
      "name": "approve",
      "outputs": [],
      "stateMutability": "nonpayable",
      "type": "function"
    },
    {
      "inputs": [
        {
          "internalType": "address",
          "name": "owner",
          "type": "address"
        }
      ],
      "name": "balanceOf",
      "outputs": [
        {
          "internalType": "uint256",
          "name": "",
          "type": "uint256"
        }
      ],
      "stateMutability": "view",
      "type": "function",
      "constant": true
    },
    {
      "inputs": [
        {
          "internalType": "uint256",
          "name": "tokenId",
          "type": "uint256"
        }
      ],
      "name": "getApproved",
      "outputs": [
        {
          "internalType": "address",
          "name": "",
          "type": "address"
        }
      ],
      "stateMutability": "view",
      "type": "function",
      "constant": true
    },
    {
      "inputs": [
        {
          "internalType": "address",
          "name": "owner",
          "type": "address"
        },
        {
          "internalType": "address",
          "name": "operator",
          "type": "address"
        }
      ],
      "name": "isApprovedForAll",
      "outputs": [
        {
          "internalType": "bool",
          "name": "",
          "type": "bool"
        }
      ],
      "stateMutability": "view",
      "type": "function",
      "constant": true
    },
    {
      "inputs": [],
      "name": "name",
      "outputs": [
        {
          "internalType": "string",
          "name": "",
          "type": "string"
        }
      ],
      "stateMutability": "view",
      "type": "function",
      "constant": true
    },
    {
      "inputs": [
        {
          "internalType": "uint256",
          "name": "tokenId",
          "type": "uint256"
        }
      ],
      "name": "ownerOf",
      "outputs": [
        {
          "internalType": "address",
          "name": "",
          "type": "address"
        }
      ],
      "stateMutability": "view",
      "type": "function",
      "constant": true
    },
    {
      "inputs": [
        {
          "internalType": "uint256",
          "name": "index",
          "type": "uint256"
        }
      ],
      "name": "payee",
      "outputs": [
        {
          "internalType": "address",
          "name": "",
          "type": "address"
        }
      ],
      "stateMutability": "view",
      "type": "function",
      "constant": true
    },
    {
      "inputs": [
        {
          "internalType": "address payable",
          "name": "account",
          "type": "address"
        }
      ],
      "name": "release",
      "outputs": [],
      "stateMutability": "nonpayable",
      "type": "function"
    },
    {
      "inputs": [
        {
          "internalType": "contract IERC20",
          "name": "token",
          "type": "address"
        },
        {
          "internalType": "address",
          "name": "account",
          "type": "address"
        }
      ],
      "name": "release",
      "outputs": [],
      "stateMutability": "nonpayable",
      "type": "function"
    },
    {
      "inputs": [
        {
          "internalType": "contract IERC20",
          "name": "token",
          "type": "address"
        },
        {
          "internalType": "address",
          "name": "account",
          "type": "address"
        }
      ],
      "name": "released",
      "outputs": [
        {
          "internalType": "uint256",
          "name": "",
          "type": "uint256"
        }
      ],
      "stateMutability": "view",
      "type": "function",
      "constant": true
    },
    {
      "inputs": [
        {
          "internalType": "address",
          "name": "account",
          "type": "address"
        }
      ],
      "name": "released",
      "outputs": [
        {
          "internalType": "uint256",
          "name": "",
          "type": "uint256"
        }
      ],
      "stateMutability": "view",
      "type": "function",
      "constant": true
    },
    {
      "inputs": [
        {
          "internalType": "address",
          "name": "from",
          "type": "address"
        },
        {
          "internalType": "address",
          "name": "to",
          "type": "address"
        },
        {
          "internalType": "uint256",
          "name": "tokenId",
          "type": "uint256"
        }
      ],
      "name": "safeTransferFrom",
      "outputs": [],
      "stateMutability": "nonpayable",
      "type": "function"
    },
    {
      "inputs": [
        {
          "internalType": "address",
          "name": "from",
          "type": "address"
        },
        {
          "internalType": "address",
          "name": "to",
          "type": "address"
        },
        {
          "internalType": "uint256",
          "name": "tokenId",
          "type": "uint256"
        },
        {
          "internalType": "bytes",
          "name": "_data",
          "type": "bytes"
        }
      ],
      "name": "safeTransferFrom",
      "outputs": [],
      "stateMutability": "nonpayable",
      "type": "function"
    },
    {
      "inputs": [
        {
          "internalType": "address",
          "name": "operator",
          "type": "address"
        },
        {
          "internalType": "bool",
          "name": "approved",
          "type": "bool"
        }
      ],
      "name": "setApprovalForAll",
      "outputs": [],
      "stateMutability": "nonpayable",
      "type": "function"
    },
    {
      "inputs": [
        {
          "internalType": "address",
          "name": "account",
          "type": "address"
        }
      ],
      "name": "shares",
      "outputs": [
        {
          "internalType": "uint256",
          "name": "",
          "type": "uint256"
        }
      ],
      "stateMutability": "view",
      "type": "function",
      "constant": true
    },
    {
      "inputs": [
        {
          "internalType": "bytes4",
          "name": "interfaceId",
          "type": "bytes4"
        }
      ],
      "name": "supportsInterface",
      "outputs": [
        {
          "internalType": "bool",
          "name": "",
          "type": "bool"
        }
      ],
      "stateMutability": "view",
      "type": "function",
      "constant": true
    },
    {
      "inputs": [],
      "name": "symbol",
      "outputs": [
        {
          "internalType": "string",
          "name": "",
          "type": "string"
        }
      ],
      "stateMutability": "view",
      "type": "function",
      "constant": true
    },
    {
      "inputs": [
        {
          "internalType": "uint256",
          "name": "index",
          "type": "uint256"
        }
      ],
      "name": "tokenByIndex",
      "outputs": [
        {
          "internalType": "uint256",
          "name": "",
          "type": "uint256"
        }
      ],
      "stateMutability": "view",
      "type": "function",
      "constant": true
    },
    {
      "inputs": [
        {
          "internalType": "address",
          "name": "owner",
          "type": "address"
        },
        {
          "internalType": "uint256",
          "name": "index",
          "type": "uint256"
        }
      ],
      "name": "tokenOfOwnerByIndex",
      "outputs": [
        {
          "internalType": "uint256",
          "name": "",
          "type": "uint256"
        }
      ],
      "stateMutability": "view",
      "type": "function",
      "constant": true
    },
    {
      "inputs": [
        {
          "internalType": "uint256",
          "name": "tokenId",
          "type": "uint256"
        }
      ],
      "name": "tokenURI",
      "outputs": [
        {
          "internalType": "string",
          "name": "",
          "type": "string"
        }
      ],
      "stateMutability": "view",
      "type": "function",
      "constant": true
    },
    {
      "inputs": [
        {
          "internalType": "contract IERC20",
          "name": "token",
          "type": "address"
        }
      ],
      "name": "totalReleased",
      "outputs": [
        {
          "internalType": "uint256",
          "name": "",
          "type": "uint256"
        }
      ],
      "stateMutability": "view",
      "type": "function",
      "constant": true
    },
    {
      "inputs": [],
      "name": "totalReleased",
      "outputs": [
        {
          "internalType": "uint256",
          "name": "",
          "type": "uint256"
        }
      ],
      "stateMutability": "view",
      "type": "function",
      "constant": true
    },
    {
      "inputs": [],
      "name": "totalShares",
      "outputs": [
        {
          "internalType": "uint256",
          "name": "",
          "type": "uint256"
        }
      ],
      "stateMutability": "view",
      "type": "function",
      "constant": true
    },
    {
      "inputs": [],
      "name": "totalSupply",
      "outputs": [
        {
          "internalType": "uint256",
          "name": "",
          "type": "uint256"
        }
      ],
      "stateMutability": "view",
      "type": "function",
      "constant": true
    },
    {
      "inputs": [
        {
          "internalType": "address",
          "name": "from",
          "type": "address"
        },
        {
          "internalType": "address",
          "name": "to",
          "type": "address"
        },
        {
          "internalType": "uint256",
          "name": "tokenId",
          "type": "uint256"
        }
      ],
      "name": "transferFrom",
      "outputs": [],
      "stateMutability": "nonpayable",
      "type": "function"
    },
    {
      "stateMutability": "payable",
      "type": "receive",
      "payable": true
    },
    {
      "inputs": [],
      "name": "getSenderTest",
      "outputs": [
        {
          "internalType": "uint256",
          "name": "",
          "type": "uint256"
        }
      ],
      "stateMutability": "view",
      "type": "function",
      "constant": true
    },
    {
      "inputs": [
        {
          "internalType": "uint256",
          "name": "numberOfTokens",
          "type": "uint256"
        }
      ],
      "name": "presaleMint",
      "outputs": [
        {
          "internalType": "uint256",
          "name": "",
          "type": "uint256"
        }
      ],
      "stateMutability": "payable",
      "type": "function",
      "payable": true
    },
    {
      "inputs": [],
      "name": "totalSupp",
      "outputs": [
        {
          "internalType": "uint256",
          "name": "",
          "type": "uint256"
        }
      ],
      "stateMutability": "view",
      "type": "function",
      "constant": true
    },
    {
      "inputs": [
        {
          "internalType": "uint256",
          "name": "tokenId",
          "type": "uint256"
        }
      ],
      "name": "tokenURIData",
      "outputs": [
        {
          "internalType": "string",
          "name": "",
          "type": "string"
        }
      ],
      "stateMutability": "view",
      "type": "function",
      "constant": true
    },
    {
      "inputs": [],
      "name": "getTotalShares",
      "outputs": [
        {
          "internalType": "uint256",
          "name": "",
          "type": "uint256"
        }
      ],
      "stateMutability": "view",
      "type": "function",
      "constant": true
    },
    {
      "inputs": [
        {
          "internalType": "address payable",
          "name": "account",
          "type": "address"
        }
      ],
      "name": "releaseShares",
      "outputs": [],
      "stateMutability": "nonpayable",
      "type": "function"
    },
    {
      "inputs": [],
      "name": "releasedShares",
      "outputs": [
        {
          "internalType": "uint256",
          "name": "",
          "type": "uint256"
        }
      ],
      "stateMutability": "view",
      "type": "function",
      "constant": true
    },
    {
      "inputs": [],
      "name": "tokensOfOwner",
      "outputs": [
        {
          "internalType": "uint256[]",
          "name": "",
          "type": "uint256[]"
        }
      ],
      "stateMutability": "view",
      "type": "function",
      "constant": true
    }
  ],
  "bytecode": "0x6080604052604051806060016040528073eae1b5133f97fbbe0ab8b7578907d395d41ab46b73ffffffffffffffffffffffffffffffffffffffff1673ffffffffffffffffffffffffffffffffffffffff16815260200173f7b8ddecdf914cfe5a62968a357dc609dad08e1973ffffffffffffffffffffffffffffffffffffffff1673ffffffffffffffffffffffffffffffffffffffff16815260200173b0c34a989f774f641e2c7672da85b2b79285df4f73ffffffffffffffffffffffffffffffffffffffff1673ffffffffffffffffffffffffffffffffffffffff16815250600e906003620000f192919062000636565b506040518060600160405280603260ff168152602001601960ff168152602001601960ff16815250600f9060036200012b929190620006c5565b50600e805480602002602001604051908101604052809291908181526020018280548015620001b057602002820191906000526020600020905b8160009054906101000a900473ffffffffffffffffffffffffffffffffffffffff1673ffffffffffffffffffffffffffffffffffffffff168152602001906001019080831162000165575b5050505050600f8054806020026020016040519081016040528092919081815260200182805480156200020357602002820191906000526020600020905b815481526020019060010190808311620001ee575b50505050506040518060400160405280600b81526020017f5761676d692050756e6b730000000000000000000000000000000000000000008152506040518060400160405280600381526020017f576150000000000000000000000000000000000000000000000000000000000081525081600190805190602001906200028c9291906200071c565b508060029080519060200190620002a59291906200071c565b5050508051825114620002ef576040517f08c379a0000000000000000000000000000000000000000000000000000000008152600401620002e69062000853565b60405180910390fd5b600082511162000336576040517f08c379a00000000000000000000000000000000000000000000000000000000081526004016200032d90620008c5565b60405180910390fd5b60005b8251811015620003a5576200038f8382815181106200035d576200035c620008e7565b5b60200260200101518383815181106200037b576200037a620008e7565b5b6020026020010151620003fc60201b60201c565b80806200039c906200094f565b91505062000339565b5050506040518060400160405280601681526020017f687474703a2f2f3132372e302e302e313a383838372f0000000000000000000081525060109080519060200190620003f59291906200071c565b5062000c84565b600073ffffffffffffffffffffffffffffffffffffffff168273ffffffffffffffffffffffffffffffffffffffff1614156200046f576040517f08c379a0000000000000000000000000000000000000000000000000000000008152600401620004669062000a13565b60405180910390fd5b60008111620004b5576040517f08c379a0000000000000000000000000000000000000000000000000000000008152600401620004ac9062000a85565b60405180910390fd5b6000600960008473ffffffffffffffffffffffffffffffffffffffff1673ffffffffffffffffffffffffffffffffffffffff16815260200190815260200160002054146200053a576040517f08c379a0000000000000000000000000000000000000000000000000000000008152600401620005319062000b1d565b60405180910390fd5b600b829080600181540180825580915050600190039060005260206000200160009091909190916101000a81548173ffffffffffffffffffffffffffffffffffffffff021916908373ffffffffffffffffffffffffffffffffffffffff16021790555080600960008473ffffffffffffffffffffffffffffffffffffffff1673ffffffffffffffffffffffffffffffffffffffff1681526020019081526020016000208190555080600754620005f1919062000b3f565b6007819055507f40c340f65e17194d14ddddb073d3c9f888e3cb52b5aae0c6c7706b4fbc905fac82826040516200062a92919062000bf2565b60405180910390a15050565b828054828255906000526020600020908101928215620006b2579160200282015b82811115620006b15782518260006101000a81548173ffffffffffffffffffffffffffffffffffffffff021916908373ffffffffffffffffffffffffffffffffffffffff1602179055509160200191906001019062000657565b5b509050620006c19190620007ad565b5090565b82805482825590600052602060002090810192821562000709579160200282015b8281111562000708578251829060ff16905591602001919060010190620006e6565b5b509050620007189190620007ad565b5090565b8280546200072a9062000c4e565b90600052602060002090601f0160209004810192826200074e57600085556200079a565b82601f106200076957805160ff19168380011785556200079a565b828001600101855582156200079a579182015b82811115620007995782518255916020019190600101906200077c565b5b509050620007a99190620007ad565b5090565b5b80821115620007c8576000816000905550600101620007ae565b5090565b600082825260208201905092915050565b7f5061796d656e7453706c69747465723a2070617965657320616e64207368617260008201527f6573206c656e677468206d69736d617463680000000000000000000000000000602082015250565b60006200083b603283620007cc565b91506200084882620007dd565b604082019050919050565b600060208201905081810360008301526200086e816200082c565b9050919050565b7f5061796d656e7453706c69747465723a206e6f20706179656573000000000000600082015250565b6000620008ad601a83620007cc565b9150620008ba8262000875565b602082019050919050565b60006020820190508181036000830152620008e0816200089e565b9050919050565b7f4e487b7100000000000000000000000000000000000000000000000000000000600052603260045260246000fd5b7f4e487b7100000000000000000000000000000000000000000000000000000000600052601160045260246000fd5b6000819050919050565b60006200095c8262000945565b91507fffffffffffffffffffffffffffffffffffffffffffffffffffffffffffffffff82141562000992576200099162000916565b5b600182019050919050565b7f5061796d656e7453706c69747465723a206163636f756e74206973207468652060008201527f7a65726f20616464726573730000000000000000000000000000000000000000602082015250565b6000620009fb602c83620007cc565b915062000a08826200099d565b604082019050919050565b6000602082019050818103600083015262000a2e81620009ec565b9050919050565b7f5061796d656e7453706c69747465723a20736861726573206172652030000000600082015250565b600062000a6d601d83620007cc565b915062000a7a8262000a35565b602082019050919050565b6000602082019050818103600083015262000aa08162000a5e565b9050919050565b7f5061796d656e7453706c69747465723a206163636f756e7420616c726561647960008201527f2068617320736861726573000000000000000000000000000000000000000000602082015250565b600062000b05602b83620007cc565b915062000b128262000aa7565b604082019050919050565b6000602082019050818103600083015262000b388162000af6565b9050919050565b600062000b4c8262000945565b915062000b598362000945565b9250827fffffffffffffffffffffffffffffffffffffffffffffffffffffffffffffffff0382111562000b915762000b9062000916565b5b828201905092915050565b600073ffffffffffffffffffffffffffffffffffffffff82169050919050565b600062000bc98262000b9c565b9050919050565b62000bdb8162000bbc565b82525050565b62000bec8162000945565b82525050565b600060408201905062000c09600083018562000bd0565b62000c18602083018462000be1565b9392505050565b7f4e487b7100000000000000000000000000000000000000000000000000000000600052602260045260246000fd5b6000600282049050600182168062000c6757607f821691505b6020821081141562000c7e5762000c7d62000c1f565b5b50919050565b614b098062000c946000396000f3fe6080604052600436106102135760003560e01c80637146bd0811610118578063c9b298f1116100a0578063d5002f2e1161006f578063d5002f2e14610863578063d79779b21461088e578063d8344ea5146108cb578063e33b7de3146108f4578063e985e9c51461091f5761025a565b8063c9b298f11461078e578063cdb012b9146107be578063ce7c2ac2146107fb578063d2d8cb67146108385761025a565b80639852595c116100e75780639852595c14610697578063a22cb465146106d4578063b7cd018b146106fd578063b88d4fde14610728578063c87b56dd146107515761025a565b80637146bd08146105d95780638b83209b1461060457806395d89b411461064157806395ea0f121461066c5761025a565b80633a98ef391161019b57806348b750441161016a57806348b75044146104ce5780634f6ccce7146104f75780636352211e146105345780636e03a2921461057157806370a082311461059c5761025a565b80633a98ef3914610412578063406072a91461043d57806342842e0e1461047a57806343365303146104a35761025a565b806318160ddd116101e257806318160ddd1461032d578063191655871461035857806323b872dd146103815780632f745c59146103aa57806332cb6b0c146103e75761025a565b806301ffc9a71461025f57806306fdde031461029c578063081812fc146102c7578063095ea7b3146103045761025a565b3661025a577f6ef95f06320e7a25a04a175ca677b7052bdd97131872c2192525a629f51be77061024161095c565b3460405161025092919061306d565b60405180910390a1005b600080fd5b34801561026b57600080fd5b5061028660048036038101906102819190613102565b610964565b604051610293919061314a565b60405180910390f35b3480156102a857600080fd5b506102b1610aae565b6040516102be91906131fe565b60405180910390f35b3480156102d357600080fd5b506102ee60048036038101906102e9919061324c565b610b40565b6040516102fb9190613279565b60405180910390f35b34801561031057600080fd5b5061032b600480360381019061032691906132c0565b610bc5565b005b34801561033957600080fd5b50610342610cde565b60405161034f9190613300565b60405180910390f35b34801561036457600080fd5b5061037f600480360381019061037a9190613359565b610ce7565b005b34801561038d57600080fd5b506103a860048036038101906103a39190613386565b610e92565b005b3480156103b657600080fd5b506103d160048036038101906103cc91906132c0565b610ea2565b6040516103de9190613300565b60405180910390f35b3480156103f357600080fd5b506103fc611094565b6040516104099190613404565b60405180910390f35b34801561041e57600080fd5b5061042761109a565b6040516104349190613300565b60405180910390f35b34801561044957600080fd5b50610464600480360381019061045f919061345d565b6110a4565b6040516104719190613300565b60405180910390f35b34801561048657600080fd5b506104a1600480360381019061049c9190613386565b61112b565b005b3480156104af57600080fd5b506104b861114b565b6040516104c59190613300565b60405180910390f35b3480156104da57600080fd5b506104f560048036038101906104f0919061345d565b61115a565b005b34801561050357600080fd5b5061051e6004803603810190610519919061324c565b611413565b60405161052b9190613300565b60405180910390f35b34801561054057600080fd5b5061055b6004803603810190610556919061324c565b611466565b6040516105689190613279565b60405180910390f35b34801561057d57600080fd5b5061058661147c565b6040516105939190613300565b60405180910390f35b3480156105a857600080fd5b506105c360048036038101906105be919061349d565b61148c565b6040516105d09190613300565b60405180910390f35b3480156105e557600080fd5b506105ee611575565b6040516105fb9190613404565b60405180910390f35b34801561061057600080fd5b5061062b6004803603810190610626919061324c565b61157a565b6040516106389190613279565b60405180910390f35b34801561064d57600080fd5b506106566115c2565b60405161066391906131fe565b60405180910390f35b34801561067857600080fd5b50610681611654565b60405161068e9190613588565b60405180910390f35b3480156106a357600080fd5b506106be60048036038101906106b9919061349d565b6117ad565b6040516106cb9190613300565b60405180910390f35b3480156106e057600080fd5b506106fb60048036038101906106f691906135d6565b6117f6565b005b34801561070957600080fd5b50610712611977565b60405161071f9190613300565b60405180910390f35b34801561073457600080fd5b5061074f600480360381019061074a919061374b565b611986565b005b34801561075d57600080fd5b506107786004803603810190610773919061324c565b6119e2565b60405161078591906131fe565b60405180910390f35b6107a860048036038101906107a3919061324c565b611a8a565b6040516107b59190613300565b60405180910390f35b3480156107ca57600080fd5b506107e560048036038101906107e0919061324c565b611abd565b6040516107f291906131fe565b60405180910390f35b34801561080757600080fd5b50610822600480360381019061081d919061349d565b611acf565b60405161082f9190613300565b60405180910390f35b34801561084457600080fd5b5061084d611b18565b60405161085a9190613300565b60405180910390f35b34801561086f57600080fd5b50610878611b24565b6040516108859190613300565b60405180910390f35b34801561089a57600080fd5b506108b560048036038101906108b091906137ce565b611b33565b6040516108c29190613300565b60405180910390f35b3480156108d757600080fd5b506108f260048036038101906108ed9190613359565b611b7c565b005b34801561090057600080fd5b50610909611b88565b6040516109169190613300565b60405180910390f35b34801561092b57600080fd5b50610946600480360381019061094191906137fb565b611b92565b604051610953919061314a565b60405180910390f35b600033905090565b60007f80ac58cd000000000000000000000000000000000000000000000000000000007bffffffffffffffffffffffffffffffffffffffffffffffffffffffff1916827bffffffffffffffffffffffffffffffffffffffffffffffffffffffff19161480610a2f57507f5b5e139f000000000000000000000000000000000000000000000000000000007bffffffffffffffffffffffffffffffffffffffffffffffffffffffff1916827bffffffffffffffffffffffffffffffffffffffffffffffffffffffff1916145b80610a9757507f780e9d63000000000000000000000000000000000000000000000000000000007bffffffffffffffffffffffffffffffffffffffffffffffffffffffff1916827bffffffffffffffffffffffffffffffffffffffffffffffffffffffff1916145b80610aa75750610aa682611c26565b5b9050919050565b606060018054610abd9061386a565b80601f0160208091040260200160405190810160405280929190818152602001828054610ae99061386a565b8015610b365780601f10610b0b57610100808354040283529160200191610b36565b820191906000526020600020905b815481529060010190602001808311610b1957829003601f168201915b5050505050905090565b6000610b4b82611c90565b610b8a576040517f08c379a0000000000000000000000000000000000000000000000000000000008152600401610b819061390e565b60405180910390fd5b6005600083815260200190815260200160002060009054906101000a900473ffffffffffffffffffffffffffffffffffffffff169050919050565b6000610bd082611466565b90508073ffffffffffffffffffffffffffffffffffffffff168373ffffffffffffffffffffffffffffffffffffffff161415610c41576040517f08c379a0000000000000000000000000000000000000000000000000000000008152600401610c38906139a0565b60405180910390fd5b8073ffffffffffffffffffffffffffffffffffffffff16610c6061095c565b73ffffffffffffffffffffffffffffffffffffffff161480610c8f5750610c8e81610c8961095c565b611b92565b5b610cce576040517f08c379a0000000000000000000000000000000000000000000000000000000008152600401610cc590613a32565b60405180910390fd5b610cd9838383611c9d565b505050565b60008054905090565b6000600960008373ffffffffffffffffffffffffffffffffffffffff1673ffffffffffffffffffffffffffffffffffffffff1681526020019081526020016000205411610d69576040517f08c379a0000000000000000000000000000000000000000000000000000000008152600401610d6090613ac4565b60405180910390fd5b6000610d73611b88565b47610d7e9190613b13565b90506000610d958383610d90866117ad565b611d4f565b90506000811415610ddb576040517f08c379a0000000000000000000000000000000000000000000000000000000008152600401610dd290613bdb565b60405180910390fd5b80600a60008573ffffffffffffffffffffffffffffffffffffffff1673ffffffffffffffffffffffffffffffffffffffff1681526020019081526020016000206000828254610e2a9190613b13565b925050819055508060086000828254610e439190613b13565b92505081905550610e548382611dbd565b7fdf20fd1e76bc69d672e4814fafb2c449bba3a5369d8359adf9e05e6fde87b0568382604051610e85929190613c5a565b60405180910390a1505050565b610e9d838383611eb1565b505050565b6000610ead8361148c565b8210610eee576040517f08c379a0000000000000000000000000000000000000000000000000000000008152600401610ee590613cf5565b60405180910390fd5b6000610ef8610cde565b905060008060005b83811015611052576000600360008381526020019081526020016000206040518060400160405290816000820160009054906101000a900473ffffffffffffffffffffffffffffffffffffffff1673ffffffffffffffffffffffffffffffffffffffff1673ffffffffffffffffffffffffffffffffffffffff1681526020016000820160149054906101000a900467ffffffffffffffff1667ffffffffffffffff1667ffffffffffffffff16815250509050600073ffffffffffffffffffffffffffffffffffffffff16816000015173ffffffffffffffffffffffffffffffffffffffff1614610ff257806000015192505b8773ffffffffffffffffffffffffffffffffffffffff168373ffffffffffffffffffffffffffffffffffffffff161415611044578684141561103b57819550505050505061108e565b83806001019450505b508080600101915050610f00565b506040517f08c379a000000000000000000000000000000000000000000000000000000000815260040161108590613d87565b60405180910390fd5b92915050565b611b3981565b6000600754905090565b6000600d60008473ffffffffffffffffffffffffffffffffffffffff1673ffffffffffffffffffffffffffffffffffffffff16815260200190815260200160002060008373ffffffffffffffffffffffffffffffffffffffff1673ffffffffffffffffffffffffffffffffffffffff16815260200190815260200160002054905092915050565b61114683838360405180602001604052806000815250611986565b505050565b6000611155611b88565b905090565b6000600960008373ffffffffffffffffffffffffffffffffffffffff1673ffffffffffffffffffffffffffffffffffffffff16815260200190815260200160002054116111dc576040517f08c379a00000000000000000000000000000000000000000000000000000000081526004016111d390613ac4565b60405180910390fd5b60006111e783611b33565b8373ffffffffffffffffffffffffffffffffffffffff166370a08231306040518263ffffffff1660e01b81526004016112209190613279565b602060405180830381865afa15801561123d573d6000803e3d6000fd5b505050506040513d601f19601f820116820180604052508101906112619190613dbc565b61126b9190613b13565b90506000611283838361127e87876110a4565b611d4f565b905060008114156112c9576040517f08c379a00000000000000000000000000000000000000000000000000000000081526004016112c090613bdb565b60405180910390fd5b80600d60008673ffffffffffffffffffffffffffffffffffffffff1673ffffffffffffffffffffffffffffffffffffffff16815260200190815260200160002060008573ffffffffffffffffffffffffffffffffffffffff1673ffffffffffffffffffffffffffffffffffffffff16815260200190815260200160002060008282546113559190613b13565b9250508190555080600c60008673ffffffffffffffffffffffffffffffffffffffff1673ffffffffffffffffffffffffffffffffffffffff16815260200190815260200160002060008282546113ab9190613b13565b925050819055506113bd8484836123f1565b8373ffffffffffffffffffffffffffffffffffffffff167f3be5b7a71e84ed12875d241991c70855ac5817d847039e17a9d895c1ceb0f18a848360405161140592919061306d565b60405180910390a250505050565b600061141d610cde565b821061145e576040517f08c379a000000000000000000000000000000000000000000000000000000000815260040161145590613e5b565b60405180910390fd5b819050919050565b600061147182612477565b600001519050919050565b60006114873361148c565b905090565b60008073ffffffffffffffffffffffffffffffffffffffff168273ffffffffffffffffffffffffffffffffffffffff1614156114fd576040517f08c379a00000000000000000000000000000000000000000000000000000000081526004016114f490613eed565b60405180910390fd5b600460008373ffffffffffffffffffffffffffffffffffffffff1673ffffffffffffffffffffffffffffffffffffffff16815260200190815260200160002060000160009054906101000a90046fffffffffffffffffffffffffffffffff166fffffffffffffffffffffffffffffffff169050919050565b601481565b6000600b82815481106115905761158f613f0d565b5b9060005260206000200160009054906101000a900473ffffffffffffffffffffffffffffffffffffffff169050919050565b6060600280546115d19061386a565b80601f01602080910402602001604051908101604052809291908181526020018280546115fd9061386a565b801561164a5780601f1061161f5761010080835404028352916020019161164a565b820191906000526020600020905b81548152906001019060200180831161162d57829003601f168201915b5050505050905090565b606060006116613361148c565b905060008114156116be57600067ffffffffffffffff81111561168757611686613620565b5b6040519080825280602002602001820160405280156116b55781602001602082028036833780820191505090505b509150506117aa565b60008167ffffffffffffffff8111156116da576116d9613620565b5b6040519080825280602002602001820160405280156117085781602001602082028036833780820191505090505b5090506000611715610cde565b90506000805b828110156117a1573373ffffffffffffffffffffffffffffffffffffffff1661174382611466565b73ffffffffffffffffffffffffffffffffffffffff16141561178e578084838151811061177357611772613f0d565b5b602002602001018181525050818061178a90613f3c565b9250505b808061179990613f3c565b91505061171b565b83955050505050505b90565b6000600a60008373ffffffffffffffffffffffffffffffffffffffff1673ffffffffffffffffffffffffffffffffffffffff168152602001908152602001600020549050919050565b6117fe61095c565b73ffffffffffffffffffffffffffffffffffffffff168273ffffffffffffffffffffffffffffffffffffffff16141561186c576040517f08c379a000000000000000000000000000000000000000000000000000000000815260040161186390613fd1565b60405180910390fd5b806006600061187961095c565b73ffffffffffffffffffffffffffffffffffffffff1673ffffffffffffffffffffffffffffffffffffffff16815260200190815260200160002060008473ffffffffffffffffffffffffffffffffffffffff1673ffffffffffffffffffffffffffffffffffffffff16815260200190815260200160002060006101000a81548160ff0219169083151502179055508173ffffffffffffffffffffffffffffffffffffffff1661192661095c565b73ffffffffffffffffffffffffffffffffffffffff167f17307eab39ab6107e8899845ad3d59bd9653f200f220920489ca2b5937696c318360405161196b919061314a565b60405180910390a35050565b6000611981610cde565b905090565b611991848484611eb1565b61199d84848484612611565b6119dc576040517f08c379a00000000000000000000000000000000000000000000000000000000081526004016119d390614063565b60405180910390fd5b50505050565b60606119ed82611c90565b611a2c576040517f08c379a0000000000000000000000000000000000000000000000000000000008152600401611a23906140f5565b60405180910390fd5b6000611a36612799565b9050600081511415611a575760405180602001604052806000815250611a82565b80611a618461282b565b604051602001611a72929190614151565b6040516020818303038152906040525b915050919050565b600080611aa88367016345785d8a000061298c90919063ffffffff16565b9050611ab433846129a2565b34915050919050565b6060611ac8826119e2565b9050919050565b6000600960008373ffffffffffffffffffffffffffffffffffffffff1673ffffffffffffffffffffffffffffffffffffffff168152602001908152602001600020549050919050565b67016345785d8a000081565b6000611b2e61109a565b905090565b6000600c60008373ffffffffffffffffffffffffffffffffffffffff1673ffffffffffffffffffffffffffffffffffffffff168152602001908152602001600020549050919050565b611b8581610ce7565b50565b6000600854905090565b6000600660008473ffffffffffffffffffffffffffffffffffffffff1673ffffffffffffffffffffffffffffffffffffffff16815260200190815260200160002060008373ffffffffffffffffffffffffffffffffffffffff1673ffffffffffffffffffffffffffffffffffffffff16815260200190815260200160002060009054906101000a900460ff16905092915050565b60007f01ffc9a7000000000000000000000000000000000000000000000000000000007bffffffffffffffffffffffffffffffffffffffffffffffffffffffff1916827bffffffffffffffffffffffffffffffffffffffffffffffffffffffff1916149050919050565b6000805482109050919050565b826005600084815260200190815260200160002060006101000a81548173ffffffffffffffffffffffffffffffffffffffff021916908373ffffffffffffffffffffffffffffffffffffffff160217905550818373ffffffffffffffffffffffffffffffffffffffff168273ffffffffffffffffffffffffffffffffffffffff167f8c5be1e5ebec7d5bd14f71427d1e84f3dd0314c0f7b2291e5b200ac8c7c3b92560405160405180910390a4505050565b600081600754600960008773ffffffffffffffffffffffffffffffffffffffff1673ffffffffffffffffffffffffffffffffffffffff1681526020019081526020016000205485611da09190614175565b611daa91906141fe565b611db4919061422f565b90509392505050565b80471015611e00576040517f08c379a0000000000000000000000000000000000000000000000000000000008152600401611df7906142af565b60405180910390fd5b60008273ffffffffffffffffffffffffffffffffffffffff1682604051611e2690614300565b60006040518083038185875af1925050503d8060008114611e63576040519150601f19603f3d011682016040523d82523d6000602084013e611e68565b606091505b5050905080611eac576040517f08c379a0000000000000000000000000000000000000000000000000000000008152600401611ea390614387565b60405180910390fd5b505050565b6000611ebc82612477565b90506000816000015173ffffffffffffffffffffffffffffffffffffffff16611ee361095c565b73ffffffffffffffffffffffffffffffffffffffff161480611f3f5750611f0861095c565b73ffffffffffffffffffffffffffffffffffffffff16611f2784610b40565b73ffffffffffffffffffffffffffffffffffffffff16145b80611f5b5750611f5a8260000151611f5561095c565b611b92565b5b905080611f9d576040517f08c379a0000000000000000000000000000000000000000000000000000000008152600401611f9490614419565b60405180910390fd5b8473ffffffffffffffffffffffffffffffffffffffff16826000015173ffffffffffffffffffffffffffffffffffffffff161461200f576040517f08c379a0000000000000000000000000000000000000000000000000000000008152600401612006906144ab565b60405180910390fd5b600073ffffffffffffffffffffffffffffffffffffffff168473ffffffffffffffffffffffffffffffffffffffff16141561207f576040517f08c379a00000000000000000000000000000000000000000000000000000000081526004016120769061453d565b60405180910390fd5b61208c85858560016129c0565b61209c6000848460000151611c9d565b6001600460008773ffffffffffffffffffffffffffffffffffffffff1673ffffffffffffffffffffffffffffffffffffffff16815260200190815260200160002060000160008282829054906101000a90046fffffffffffffffffffffffffffffffff160392506101000a8154816fffffffffffffffffffffffffffffffff02191690836fffffffffffffffffffffffffffffffff1602179055506001600460008673ffffffffffffffffffffffffffffffffffffffff1673ffffffffffffffffffffffffffffffffffffffff16815260200190815260200160002060000160008282829054906101000a90046fffffffffffffffffffffffffffffffff160192506101000a8154816fffffffffffffffffffffffffffffffff02191690836fffffffffffffffffffffffffffffffff160217905550836003600085815260200190815260200160002060000160006101000a81548173ffffffffffffffffffffffffffffffffffffffff021916908373ffffffffffffffffffffffffffffffffffffffff160217905550426003600085815260200190815260200160002060000160146101000a81548167ffffffffffffffff021916908367ffffffffffffffff1602179055506000600184019050600073ffffffffffffffffffffffffffffffffffffffff166003600083815260200190815260200160002060000160009054906101000a900473ffffffffffffffffffffffffffffffffffffffff1673ffffffffffffffffffffffffffffffffffffffff161415612381576122e081611c90565b156123805782600001516003600083815260200190815260200160002060000160006101000a81548173ffffffffffffffffffffffffffffffffffffffff021916908373ffffffffffffffffffffffffffffffffffffffff16021790555082602001516003600083815260200190815260200160002060000160146101000a81548167ffffffffffffffff021916908367ffffffffffffffff1602179055505b5b50828473ffffffffffffffffffffffffffffffffffffffff168673ffffffffffffffffffffffffffffffffffffffff167fddf252ad1be2c89b69c2b068fc378daa952ba7f163c4a11628f55a4df523b3ef60405160405180910390a46123ea85858560016129c6565b5050505050565b6124728363a9059cbb60e01b848460405160240161241092919061306d565b604051602081830303815290604052907bffffffffffffffffffffffffffffffffffffffffffffffffffffffff19166020820180517bffffffffffffffffffffffffffffffffffffffffffffffffffffffff83818316178352505050506129cc565b505050565b61247f612fd9565b61248882611c90565b6124c7576040517f08c379a00000000000000000000000000000000000000000000000000000000081526004016124be906145cf565b60405180910390fd5b60008290505b600081106125d0576000600360008381526020019081526020016000206040518060400160405290816000820160009054906101000a900473ffffffffffffffffffffffffffffffffffffffff1673ffffffffffffffffffffffffffffffffffffffff1673ffffffffffffffffffffffffffffffffffffffff1681526020016000820160149054906101000a900467ffffffffffffffff1667ffffffffffffffff1667ffffffffffffffff16815250509050600073ffffffffffffffffffffffffffffffffffffffff16816000015173ffffffffffffffffffffffffffffffffffffffff16146125c157809250505061260c565b508080600190039150506124cd565b506040517f08c379a000000000000000000000000000000000000000000000000000000000815260040161260390614661565b60405180910390fd5b919050565b60006126328473ffffffffffffffffffffffffffffffffffffffff16612a93565b1561278c578373ffffffffffffffffffffffffffffffffffffffff1663150b7a0261265b61095c565b8786866040518563ffffffff1660e01b815260040161267d94939291906146d6565b6020604051808303816000875af19250505080156126b957506040513d601f19601f820116820180604052508101906126b69190614737565b60015b61273c573d80600081146126e9576040519150601f19603f3d011682016040523d82523d6000602084013e6126ee565b606091505b50600081511415612734576040517f08c379a000000000000000000000000000000000000000000000000000000000815260040161272b90614063565b60405180910390fd5b805181602001fd5b63150b7a0260e01b7bffffffffffffffffffffffffffffffffffffffffffffffffffffffff1916817bffffffffffffffffffffffffffffffffffffffffffffffffffffffff191614915050612791565b600190505b949350505050565b6060601080546127a89061386a565b80601f01602080910402602001604051908101604052809291908181526020018280546127d49061386a565b80156128215780601f106127f657610100808354040283529160200191612821565b820191906000526020600020905b81548152906001019060200180831161280457829003601f168201915b5050505050905090565b60606000821415612873576040518060400160405280600181526020017f30000000000000000000000000000000000000000000000000000000000000008152509050612987565b600082905060005b600082146128a557808061288e90613f3c565b915050600a8261289e91906141fe565b915061287b565b60008167ffffffffffffffff8111156128c1576128c0613620565b5b6040519080825280601f01601f1916602001820160405280156128f35781602001600182028036833780820191505090505b5090505b600085146129805760018261290c919061422f565b9150600a8561291b9190614764565b60306129279190613b13565b60f81b81838151811061293d5761293c613f0d565b5b60200101907effffffffffffffffffffffffffffffffffffffffffffffffffffffffffffff1916908160001a905350600a8561297991906141fe565b94506128f7565b8093505050505b919050565b6000818361299a9190614175565b905092915050565b6129bc828260405180602001604052806000815250612ab6565b5050565b50505050565b50505050565b6000612a2e826040518060400160405280602081526020017f5361666545524332303a206c6f772d6c6576656c2063616c6c206661696c65648152508573ffffffffffffffffffffffffffffffffffffffff16612ac89092919063ffffffff16565b9050600081511115612a8e5780806020019051810190612a4e91906147aa565b612a8d576040517f08c379a0000000000000000000000000000000000000000000000000000000008152600401612a8490614849565b60405180910390fd5b5b505050565b6000808273ffffffffffffffffffffffffffffffffffffffff163b119050919050565b612ac38383836001612ae0565b505050565b6060612ad78484600085612e5e565b90509392505050565b600080549050600073ffffffffffffffffffffffffffffffffffffffff168573ffffffffffffffffffffffffffffffffffffffff161415612b56576040517f08c379a0000000000000000000000000000000000000000000000000000000008152600401612b4d906148db565b60405180910390fd5b6000841415612b9a576040517f08c379a0000000000000000000000000000000000000000000000000000000008152600401612b919061496d565b60405180910390fd5b612ba760008683876129c0565b83600460008773ffffffffffffffffffffffffffffffffffffffff1673ffffffffffffffffffffffffffffffffffffffff16815260200190815260200160002060000160008282829054906101000a90046fffffffffffffffffffffffffffffffff160192506101000a8154816fffffffffffffffffffffffffffffffff02191690836fffffffffffffffffffffffffffffffff16021790555083600460008773ffffffffffffffffffffffffffffffffffffffff1673ffffffffffffffffffffffffffffffffffffffff16815260200190815260200160002060000160108282829054906101000a90046fffffffffffffffffffffffffffffffff160192506101000a8154816fffffffffffffffffffffffffffffffff02191690836fffffffffffffffffffffffffffffffff160217905550846003600083815260200190815260200160002060000160006101000a81548173ffffffffffffffffffffffffffffffffffffffff021916908373ffffffffffffffffffffffffffffffffffffffff160217905550426003600083815260200190815260200160002060000160146101000a81548167ffffffffffffffff021916908367ffffffffffffffff160217905550600081905060005b85811015612e4157818773ffffffffffffffffffffffffffffffffffffffff16600073ffffffffffffffffffffffffffffffffffffffff167fddf252ad1be2c89b69c2b068fc378daa952ba7f163c4a11628f55a4df523b3ef60405160405180910390a48315612e2c57612dec6000888488612611565b612e2b576040517f08c379a0000000000000000000000000000000000000000000000000000000008152600401612e2290614063565b60405180910390fd5b5b81806001019250508080600101915050612d75565b508060008190555050612e5760008683876129c6565b5050505050565b606082471015612ea3576040517f08c379a0000000000000000000000000000000000000000000000000000000008152600401612e9a906149ff565b60405180910390fd5b612eac85612a93565b612eeb576040517f08c379a0000000000000000000000000000000000000000000000000000000008152600401612ee290614a6b565b60405180910390fd5b6000808673ffffffffffffffffffffffffffffffffffffffff168587604051612f149190614abc565b60006040518083038185875af1925050503d8060008114612f51576040519150601f19603f3d011682016040523d82523d6000602084013e612f56565b606091505b5091509150612f66828286612f72565b92505050949350505050565b60608315612f8257829050612fd2565b600083511115612f955782518084602001fd5b816040517f08c379a0000000000000000000000000000000000000000000000000000000008152600401612fc991906131fe565b60405180910390fd5b9392505050565b6040518060400160405280600073ffffffffffffffffffffffffffffffffffffffff168152602001600067ffffffffffffffff1681525090565b600073ffffffffffffffffffffffffffffffffffffffff82169050919050565b600061303e82613013565b9050919050565b61304e81613033565b82525050565b6000819050919050565b61306781613054565b82525050565b60006040820190506130826000830185613045565b61308f602083018461305e565b9392505050565b6000604051905090565b600080fd5b600080fd5b60007fffffffff0000000000000000000000000000000000000000000000000000000082169050919050565b6130df816130aa565b81146130ea57600080fd5b50565b6000813590506130fc816130d6565b92915050565b600060208284031215613118576131176130a0565b5b6000613126848285016130ed565b91505092915050565b60008115159050919050565b6131448161312f565b82525050565b600060208201905061315f600083018461313b565b92915050565b600081519050919050565b600082825260208201905092915050565b60005b8381101561319f578082015181840152602081019050613184565b838111156131ae576000848401525b50505050565b6000601f19601f8301169050919050565b60006131d082613165565b6131da8185613170565b93506131ea818560208601613181565b6131f3816131b4565b840191505092915050565b6000602082019050818103600083015261321881846131c5565b905092915050565b61322981613054565b811461323457600080fd5b50565b60008135905061324681613220565b92915050565b600060208284031215613262576132616130a0565b5b600061327084828501613237565b91505092915050565b600060208201905061328e6000830184613045565b92915050565b61329d81613033565b81146132a857600080fd5b50565b6000813590506132ba81613294565b92915050565b600080604083850312156132d7576132d66130a0565b5b60006132e5858286016132ab565b92505060206132f685828601613237565b9150509250929050565b6000602082019050613315600083018461305e565b92915050565b600061332682613013565b9050919050565b6133368161331b565b811461334157600080fd5b50565b6000813590506133538161332d565b92915050565b60006020828403121561336f5761336e6130a0565b5b600061337d84828501613344565b91505092915050565b60008060006060848603121561339f5761339e6130a0565b5b60006133ad868287016132ab565b93505060206133be868287016132ab565b92505060406133cf86828701613237565b9150509250925092565b60006fffffffffffffffffffffffffffffffff82169050919050565b6133fe816133d9565b82525050565b600060208201905061341960008301846133f5565b92915050565b600061342a82613033565b9050919050565b61343a8161341f565b811461344557600080fd5b50565b60008135905061345781613431565b92915050565b60008060408385031215613474576134736130a0565b5b600061348285828601613448565b9250506020613493858286016132ab565b9150509250929050565b6000602082840312156134b3576134b26130a0565b5b60006134c1848285016132ab565b91505092915050565b600081519050919050565b600082825260208201905092915050565b6000819050602082019050919050565b6134ff81613054565b82525050565b600061351183836134f6565b60208301905092915050565b6000602082019050919050565b6000613535826134ca565b61353f81856134d5565b935061354a836134e6565b8060005b8381101561357b5781516135628882613505565b975061356d8361351d565b92505060018101905061354e565b5085935050505092915050565b600060208201905081810360008301526135a2818461352a565b905092915050565b6135b38161312f565b81146135be57600080fd5b50565b6000813590506135d0816135aa565b92915050565b600080604083850312156135ed576135ec6130a0565b5b60006135fb858286016132ab565b925050602061360c858286016135c1565b9150509250929050565b600080fd5b600080fd5b7f4e487b7100000000000000000000000000000000000000000000000000000000600052604160045260246000fd5b613658826131b4565b810181811067ffffffffffffffff8211171561367757613676613620565b5b80604052505050565b600061368a613096565b9050613696828261364f565b919050565b600067ffffffffffffffff8211156136b6576136b5613620565b5b6136bf826131b4565b9050602081019050919050565b82818337600083830152505050565b60006136ee6136e98461369b565b613680565b90508281526020810184848401111561370a5761370961361b565b5b6137158482856136cc565b509392505050565b600082601f83011261373257613731613616565b5b81356137428482602086016136db565b91505092915050565b60008060008060808587031215613765576137646130a0565b5b6000613773878288016132ab565b9450506020613784878288016132ab565b935050604061379587828801613237565b925050606085013567ffffffffffffffff8111156137b6576137b56130a5565b5b6137c28782880161371d565b91505092959194509250565b6000602082840312156137e4576137e36130a0565b5b60006137f284828501613448565b91505092915050565b60008060408385031215613812576138116130a0565b5b6000613820858286016132ab565b9250506020613831858286016132ab565b9150509250929050565b7f4e487b7100000000000000000000000000000000000000000000000000000000600052602260045260246000fd5b6000600282049050600182168061388257607f821691505b602082108114156138965761389561383b565b5b50919050565b7f455243373231413a20617070726f76656420717565727920666f72206e6f6e6560008201527f78697374656e7420746f6b656e00000000000000000000000000000000000000602082015250565b60006138f8602d83613170565b91506139038261389c565b604082019050919050565b60006020820190508181036000830152613927816138eb565b9050919050565b7f455243373231413a20617070726f76616c20746f2063757272656e74206f776e60008201527f6572000000000000000000000000000000000000000000000000000000000000602082015250565b600061398a602283613170565b91506139958261392e565b604082019050919050565b600060208201905081810360008301526139b98161397d565b9050919050565b7f455243373231413a20617070726f76652063616c6c6572206973206e6f74206f60008201527f776e6572206e6f7220617070726f76656420666f7220616c6c00000000000000602082015250565b6000613a1c603983613170565b9150613a27826139c0565b604082019050919050565b60006020820190508181036000830152613a4b81613a0f565b9050919050565b7f5061796d656e7453706c69747465723a206163636f756e7420686173206e6f2060008201527f7368617265730000000000000000000000000000000000000000000000000000602082015250565b6000613aae602683613170565b9150613ab982613a52565b604082019050919050565b60006020820190508181036000830152613add81613aa1565b9050919050565b7f4e487b7100000000000000000000000000000000000000000000000000000000600052601160045260246000fd5b6000613b1e82613054565b9150613b2983613054565b9250827fffffffffffffffffffffffffffffffffffffffffffffffffffffffffffffffff03821115613b5e57613b5d613ae4565b5b828201905092915050565b7f5061796d656e7453706c69747465723a206163636f756e74206973206e6f742060008201527f647565207061796d656e74000000000000000000000000000000000000000000602082015250565b6000613bc5602b83613170565b9150613bd082613b69565b604082019050919050565b60006020820190508181036000830152613bf481613bb8565b9050919050565b6000819050919050565b6000613c20613c1b613c1684613013565b613bfb565b613013565b9050919050565b6000613c3282613c05565b9050919050565b6000613c4482613c27565b9050919050565b613c5481613c39565b82525050565b6000604082019050613c6f6000830185613c4b565b613c7c602083018461305e565b9392505050565b7f455243373231413a206f776e657220696e646578206f7574206f6620626f756e60008201527f6473000000000000000000000000000000000000000000000000000000000000602082015250565b6000613cdf602283613170565b9150613cea82613c83565b604082019050919050565b60006020820190508181036000830152613d0e81613cd2565b9050919050565b7f455243373231413a20756e61626c6520746f2067657420746f6b656e206f662060008201527f6f776e657220627920696e646578000000000000000000000000000000000000602082015250565b6000613d71602e83613170565b9150613d7c82613d15565b604082019050919050565b60006020820190508181036000830152613da081613d64565b9050919050565b600081519050613db681613220565b92915050565b600060208284031215613dd257613dd16130a0565b5b6000613de084828501613da7565b91505092915050565b7f455243373231413a20676c6f62616c20696e646578206f7574206f6620626f7560008201527f6e64730000000000000000000000000000000000000000000000000000000000602082015250565b6000613e45602383613170565b9150613e5082613de9565b604082019050919050565b60006020820190508181036000830152613e7481613e38565b9050919050565b7f455243373231413a2062616c616e636520717565727920666f7220746865207a60008201527f65726f2061646472657373000000000000000000000000000000000000000000602082015250565b6000613ed7602b83613170565b9150613ee282613e7b565b604082019050919050565b60006020820190508181036000830152613f0681613eca565b9050919050565b7f4e487b7100000000000000000000000000000000000000000000000000000000600052603260045260246000fd5b6000613f4782613054565b91507fffffffffffffffffffffffffffffffffffffffffffffffffffffffffffffffff821415613f7a57613f79613ae4565b5b600182019050919050565b7f455243373231413a20617070726f766520746f2063616c6c6572000000000000600082015250565b6000613fbb601a83613170565b9150613fc682613f85565b602082019050919050565b60006020820190508181036000830152613fea81613fae565b9050919050565b7f455243373231413a207472616e7366657220746f206e6f6e204552433732315260008201527f6563656976657220696d706c656d656e74657200000000000000000000000000602082015250565b600061404d603383613170565b915061405882613ff1565b604082019050919050565b6000602082019050818103600083015261407c81614040565b9050919050565b7f4552433732314d657461646174613a2055524920717565727920666f72206e6f60008201527f6e6578697374656e7420746f6b656e0000000000000000000000000000000000602082015250565b60006140df602f83613170565b91506140ea82614083565b604082019050919050565b6000602082019050818103600083015261410e816140d2565b9050919050565b600081905092915050565b600061412b82613165565b6141358185614115565b9350614145818560208601613181565b80840191505092915050565b600061415d8285614120565b91506141698284614120565b91508190509392505050565b600061418082613054565b915061418b83613054565b9250817fffffffffffffffffffffffffffffffffffffffffffffffffffffffffffffffff04831182151516156141c4576141c3613ae4565b5b828202905092915050565b7f4e487b7100000000000000000000000000000000000000000000000000000000600052601260045260246000fd5b600061420982613054565b915061421483613054565b925082614224576142236141cf565b5b828204905092915050565b600061423a82613054565b915061424583613054565b92508282101561425857614257613ae4565b5b828203905092915050565b7f416464726573733a20696e73756666696369656e742062616c616e6365000000600082015250565b6000614299601d83613170565b91506142a482614263565b602082019050919050565b600060208201905081810360008301526142c88161428c565b9050919050565b600081905092915050565b50565b60006142ea6000836142cf565b91506142f5826142da565b600082019050919050565b600061430b826142dd565b9150819050919050565b7f416464726573733a20756e61626c6520746f2073656e642076616c75652c207260008201527f6563697069656e74206d61792068617665207265766572746564000000000000602082015250565b6000614371603a83613170565b915061437c82614315565b604082019050919050565b600060208201905081810360008301526143a081614364565b9050919050565b7f455243373231413a207472616e736665722063616c6c6572206973206e6f742060008201527f6f776e6572206e6f7220617070726f7665640000000000000000000000000000602082015250565b6000614403603283613170565b915061440e826143a7565b604082019050919050565b60006020820190508181036000830152614432816143f6565b9050919050565b7f455243373231413a207472616e736665722066726f6d20696e636f727265637460008201527f206f776e65720000000000000000000000000000000000000000000000000000602082015250565b6000614495602683613170565b91506144a082614439565b604082019050919050565b600060208201905081810360008301526144c481614488565b9050919050565b7f455243373231413a207472616e7366657220746f20746865207a65726f20616460008201527f6472657373000000000000000000000000000000000000000000000000000000602082015250565b6000614527602583613170565b9150614532826144cb565b604082019050919050565b600060208201905081810360008301526145568161451a565b9050919050565b7f455243373231413a206f776e657220717565727920666f72206e6f6e6578697360008201527f74656e7420746f6b656e00000000000000000000000000000000000000000000602082015250565b60006145b9602a83613170565b91506145c48261455d565b604082019050919050565b600060208201905081810360008301526145e8816145ac565b9050919050565b7f455243373231413a20756e61626c6520746f2064657465726d696e652074686560008201527f206f776e6572206f6620746f6b656e0000000000000000000000000000000000602082015250565b600061464b602f83613170565b9150614656826145ef565b604082019050919050565b6000602082019050818103600083015261467a8161463e565b9050919050565b600081519050919050565b600082825260208201905092915050565b60006146a882614681565b6146b2818561468c565b93506146c2818560208601613181565b6146cb816131b4565b840191505092915050565b60006080820190506146eb6000830187613045565b6146f86020830186613045565b614705604083018561305e565b8181036060830152614717818461469d565b905095945050505050565b600081519050614731816130d6565b92915050565b60006020828403121561474d5761474c6130a0565b5b600061475b84828501614722565b91505092915050565b600061476f82613054565b915061477a83613054565b92508261478a576147896141cf565b5b828206905092915050565b6000815190506147a4816135aa565b92915050565b6000602082840312156147c0576147bf6130a0565b5b60006147ce84828501614795565b91505092915050565b7f5361666545524332303a204552433230206f7065726174696f6e20646964206e60008201527f6f74207375636365656400000000000000000000000000000000000000000000602082015250565b6000614833602a83613170565b915061483e826147d7565b604082019050919050565b6000602082019050818103600083015261486281614826565b9050919050565b7f455243373231413a206d696e7420746f20746865207a65726f2061646472657360008201527f7300000000000000000000000000000000000000000000000000000000000000602082015250565b60006148c5602183613170565b91506148d082614869565b604082019050919050565b600060208201905081810360008301526148f4816148b8565b9050919050565b7f455243373231413a207175616e74697479206d7573742062652067726561746560008201527f72207468616e2030000000000000000000000000000000000000000000000000602082015250565b6000614957602883613170565b9150614962826148fb565b604082019050919050565b600060208201905081810360008301526149868161494a565b9050919050565b7f416464726573733a20696e73756666696369656e742062616c616e636520666f60008201527f722063616c6c0000000000000000000000000000000000000000000000000000602082015250565b60006149e9602683613170565b91506149f48261498d565b604082019050919050565b60006020820190508181036000830152614a18816149dc565b9050919050565b7f416464726573733a2063616c6c20746f206e6f6e2d636f6e7472616374000000600082015250565b6000614a55601d83613170565b9150614a6082614a1f565b602082019050919050565b60006020820190508181036000830152614a8481614a48565b9050919050565b6000614a9682614681565b614aa081856142cf565b9350614ab0818560208601613181565b80840191505092915050565b6000614ac88284614a8b565b91508190509291505056fea2646970667358221220159290edfcbbab87a4e464401ebffbcb90bd81b68abf0756e360998673f3743064736f6c634300080c0033",
  "immutableReferences": {},
  "source": "// SPDX-License-Identifier: MIT\r\npragma solidity >=0.4.21 <8.10.0;\r\n\r\nimport \"erc721a/contracts/ERC721A.sol\";\r\nimport \"@openzeppelin/contracts/utils/math/SafeMath.sol\";\r\nimport \"@openzeppelin/contracts/finance/PaymentSplitter.sol\";\r\n\r\ncontract MintPunks is ERC721A, PaymentSplitter {\r\n    using SafeMath for uint256;\r\n\r\n    address[] private PAY_LIST = [\r\n        0xEAE1b5133f97fbbe0ab8b7578907d395d41ab46b,\r\n        0xf7B8dDeCdf914CfE5A62968A357Dc609DAd08E19,\r\n        0xb0C34A989f774f641E2C7672Da85B2B79285dF4f\r\n    ];\r\n    uint256[] private PAY_SHARES = [50, 25, 25];\r\n    uint256 public constant TOKEN_PRICE = 0.1 ether;\r\n    uint128 public constant MAX_SUPPLY = 6969;\r\n    uint128 public constant MAX_PURCHASE = 20;\r\n    string private baseTokenUri;\r\n\r\n    constructor()\r\n        payable\r\n        ERC721A(\"Wagmi Punks\", \"WaP\")\r\n        PaymentSplitter(PAY_LIST, PAY_SHARES)\r\n    {\r\n        baseTokenUri = \"http://127.0.0.1:8887/\";\r\n    }\r\n\r\n    function getSenderTest() public view returns (uint256) {\r\n        return balanceOf(msg.sender);\r\n    }\r\n\r\n    function presaleMint(uint256 numberOfTokens)\r\n        public\r\n        payable\r\n        returns (uint256)\r\n    {\r\n        uint256 totalCost = TOKEN_PRICE.mul(numberOfTokens);\r\n        // require(totalCost <= msg.value, \"Ether value sent is too low\");\r\n        _safeMint(msg.sender, numberOfTokens);\r\n\r\n        return msg.value;\r\n    }\r\n\r\n    function totalSupp() public view returns (uint256) {\r\n        return totalSupply();\r\n    }\r\n\r\n    function tokenURIData(uint256 tokenId) public view returns (string memory) {\r\n        return tokenURI(tokenId);\r\n    }\r\n\r\n    function getTotalShares() public view returns (uint256) {\r\n        return totalShares();\r\n    }\r\n\r\n    function releaseShares(address payable account) public {\r\n        return release(account);\r\n    }\r\n\r\n     function releasedShares() public view returns (uint256){\r\n        return totalReleased();\r\n    }\r\n\r\n    function tokensOfOwner() public view returns (uint256[] memory) {\r\n        uint256 tokenCount = balanceOf(msg.sender);\r\n\r\n        if (tokenCount == 0) {\r\n            // Return an empty array\r\n            return new uint256[](0);\r\n        } else {\r\n            uint256[] memory result = new uint256[](tokenCount);\r\n            uint256 totalPunks = totalSupply();\r\n            uint256 resultIndex = 0;\r\n\r\n            // We count on the fact that all cats have IDs starting at 1 and increasing\r\n            // sequentially up to the totalCat count.\r\n            uint256 punkId;\r\n\r\n            for (punkId = 0; punkId < totalPunks; punkId++) {\r\n                if (ownerOf(punkId) == msg.sender) {\r\n                    result[resultIndex] = punkId;\r\n                    resultIndex++;\r\n                }\r\n            }\r\n\r\n            return result;\r\n        }\r\n    }\r\n\r\n    function _baseURI() internal view virtual override returns (string memory) {\r\n        return baseTokenUri;\r\n    }\r\n}\r\n",
  "sourcePath": "C:\\Users\\lwikberg\\Documents\\dev\\Egna projekt\\Punks\\contracts\\MintPunks.sol",
  "compiler": {
    "name": "solc",
    "version": "0.8.12+commit.f00d7308.Emscripten.clang"
  },
  "schemaVersion": "3.4.4",
  "updatedAt": "2022-03-14T13:50:32.725Z",
  "networkType": "ethereum",
  "devdoc": {
    "kind": "dev",
    "methods": {
      "approve(address,uint256)": {
        "details": "See {IERC721-approve}."
      },
      "balanceOf(address)": {
        "details": "See {IERC721-balanceOf}."
      },
      "getApproved(uint256)": {
        "details": "See {IERC721-getApproved}."
      },
      "isApprovedForAll(address,address)": {
        "details": "See {IERC721-isApprovedForAll}."
      },
      "name()": {
        "details": "See {IERC721Metadata-name}."
      },
      "ownerOf(uint256)": {
        "details": "See {IERC721-ownerOf}."
      },
      "payee(uint256)": {
        "details": "Getter for the address of the payee number `index`."
      },
      "release(address)": {
        "details": "Triggers a transfer to `account` of the amount of Ether they are owed, according to their percentage of the total shares and their previous withdrawals."
      },
      "release(address,address)": {
        "details": "Triggers a transfer to `account` of the amount of `token` tokens they are owed, according to their percentage of the total shares and their previous withdrawals. `token` must be the address of an IERC20 contract."
      },
      "released(address)": {
        "details": "Getter for the amount of Ether already released to a payee."
      },
      "released(address,address)": {
        "details": "Getter for the amount of `token` tokens already released to a payee. `token` should be the address of an IERC20 contract."
      },
      "safeTransferFrom(address,address,uint256)": {
        "details": "See {IERC721-safeTransferFrom}."
      },
      "safeTransferFrom(address,address,uint256,bytes)": {
        "details": "See {IERC721-safeTransferFrom}."
      },
      "setApprovalForAll(address,bool)": {
        "details": "See {IERC721-setApprovalForAll}."
      },
      "shares(address)": {
        "details": "Getter for the amount of shares held by an account."
      },
      "supportsInterface(bytes4)": {
        "details": "See {IERC165-supportsInterface}."
      },
      "symbol()": {
        "details": "See {IERC721Metadata-symbol}."
      },
      "tokenByIndex(uint256)": {
        "details": "See {IERC721Enumerable-tokenByIndex}."
      },
      "tokenOfOwnerByIndex(address,uint256)": {
        "details": "See {IERC721Enumerable-tokenOfOwnerByIndex}. This read function is O(totalSupply). If calling from a separate contract, be sure to test gas first. It may also degrade with extremely large collection sizes (e.g >> 10000), test for your use case."
      },
      "tokenURI(uint256)": {
        "details": "See {IERC721Metadata-tokenURI}."
      },
      "totalReleased()": {
        "details": "Getter for the total amount of Ether already released."
      },
      "totalReleased(address)": {
        "details": "Getter for the total amount of `token` already released. `token` should be the address of an IERC20 contract."
      },
      "totalShares()": {
        "details": "Getter for the total shares held by payees."
      },
      "totalSupply()": {
        "details": "See {IERC721Enumerable-totalSupply}."
      },
      "transferFrom(address,address,uint256)": {
        "details": "See {IERC721-transferFrom}."
      }
    },
    "version": 1
  },
  "userdoc": {
    "kind": "user",
    "methods": {},
    "version": 1
  }
}