{
  "contractName": "MintPunks",
  "abi": [
    {
      "inputs": [],
      "stateMutability": "payable",
      "type": "constructor",
      "payable": true
    },
    {
      "anonymous": false,
      "inputs": [
        {
          "indexed": true,
          "internalType": "address",
          "name": "owner",
          "type": "address"
        },
        {
          "indexed": true,
          "internalType": "address",
          "name": "approved",
          "type": "address"
        },
        {
          "indexed": true,
          "internalType": "uint256",
          "name": "tokenId",
          "type": "uint256"
        }
      ],
      "name": "Approval",
      "type": "event"
    },
    {
      "anonymous": false,
      "inputs": [
        {
          "indexed": true,
          "internalType": "address",
          "name": "owner",
          "type": "address"
        },
        {
          "indexed": true,
          "internalType": "address",
          "name": "operator",
          "type": "address"
        },
        {
          "indexed": false,
          "internalType": "bool",
          "name": "approved",
          "type": "bool"
        }
      ],
      "name": "ApprovalForAll",
      "type": "event"
    },
    {
      "anonymous": false,
      "inputs": [
        {
          "indexed": true,
          "internalType": "contract IERC20",
          "name": "token",
          "type": "address"
        },
        {
          "indexed": false,
          "internalType": "address",
          "name": "to",
          "type": "address"
        },
        {
          "indexed": false,
          "internalType": "uint256",
          "name": "amount",
          "type": "uint256"
        }
      ],
      "name": "ERC20PaymentReleased",
      "type": "event"
    },
    {
      "anonymous": false,
      "inputs": [
        {
          "indexed": false,
          "internalType": "address",
          "name": "account",
          "type": "address"
        },
        {
          "indexed": false,
          "internalType": "uint256",
          "name": "shares",
          "type": "uint256"
        }
      ],
      "name": "PayeeAdded",
      "type": "event"
    },
    {
      "anonymous": false,
      "inputs": [
        {
          "indexed": false,
          "internalType": "address",
          "name": "from",
          "type": "address"
        },
        {
          "indexed": false,
          "internalType": "uint256",
          "name": "amount",
          "type": "uint256"
        }
      ],
      "name": "PaymentReceived",
      "type": "event"
    },
    {
      "anonymous": false,
      "inputs": [
        {
          "indexed": false,
          "internalType": "address",
          "name": "to",
          "type": "address"
        },
        {
          "indexed": false,
          "internalType": "uint256",
          "name": "amount",
          "type": "uint256"
        }
      ],
      "name": "PaymentReleased",
      "type": "event"
    },
    {
      "anonymous": false,
      "inputs": [
        {
          "indexed": true,
          "internalType": "address",
          "name": "from",
          "type": "address"
        },
        {
          "indexed": true,
          "internalType": "address",
          "name": "to",
          "type": "address"
        },
        {
          "indexed": true,
          "internalType": "uint256",
          "name": "tokenId",
          "type": "uint256"
        }
      ],
      "name": "Transfer",
      "type": "event"
    },
    {
      "inputs": [],
      "name": "MAX_PURCHASE",
      "outputs": [
        {
          "internalType": "uint128",
          "name": "",
          "type": "uint128"
        }
      ],
      "stateMutability": "view",
      "type": "function",
      "constant": true
    },
    {
      "inputs": [],
      "name": "MAX_SUPPLY",
      "outputs": [
        {
          "internalType": "uint128",
          "name": "",
          "type": "uint128"
        }
      ],
      "stateMutability": "view",
      "type": "function",
      "constant": true
    },
    {
      "inputs": [],
      "name": "TOKEN_PRICE",
      "outputs": [
        {
          "internalType": "uint256",
          "name": "",
          "type": "uint256"
        }
      ],
      "stateMutability": "view",
      "type": "function",
      "constant": true
    },
    {
      "inputs": [
        {
          "internalType": "address",
          "name": "to",
          "type": "address"
        },
        {
          "internalType": "uint256",
          "name": "tokenId",
          "type": "uint256"
        }
      ],
      "name": "approve",
      "outputs": [],
      "stateMutability": "nonpayable",
      "type": "function"
    },
    {
      "inputs": [
        {
          "internalType": "address",
          "name": "owner",
          "type": "address"
        }
      ],
      "name": "balanceOf",
      "outputs": [
        {
          "internalType": "uint256",
          "name": "",
          "type": "uint256"
        }
      ],
      "stateMutability": "view",
      "type": "function",
      "constant": true
    },
    {
      "inputs": [
        {
          "internalType": "uint256",
          "name": "tokenId",
          "type": "uint256"
        }
      ],
      "name": "getApproved",
      "outputs": [
        {
          "internalType": "address",
          "name": "",
          "type": "address"
        }
      ],
      "stateMutability": "view",
      "type": "function",
      "constant": true
    },
    {
      "inputs": [
        {
          "internalType": "address",
          "name": "owner",
          "type": "address"
        },
        {
          "internalType": "address",
          "name": "operator",
          "type": "address"
        }
      ],
      "name": "isApprovedForAll",
      "outputs": [
        {
          "internalType": "bool",
          "name": "",
          "type": "bool"
        }
      ],
      "stateMutability": "view",
      "type": "function",
      "constant": true
    },
    {
      "inputs": [],
      "name": "name",
      "outputs": [
        {
          "internalType": "string",
          "name": "",
          "type": "string"
        }
      ],
      "stateMutability": "view",
      "type": "function",
      "constant": true
    },
    {
      "inputs": [
        {
          "internalType": "uint256",
          "name": "tokenId",
          "type": "uint256"
        }
      ],
      "name": "ownerOf",
      "outputs": [
        {
          "internalType": "address",
          "name": "",
          "type": "address"
        }
      ],
      "stateMutability": "view",
      "type": "function",
      "constant": true
    },
    {
      "inputs": [
        {
          "internalType": "uint256",
          "name": "index",
          "type": "uint256"
        }
      ],
      "name": "payee",
      "outputs": [
        {
          "internalType": "address",
          "name": "",
          "type": "address"
        }
      ],
      "stateMutability": "view",
      "type": "function",
      "constant": true
    },
    {
      "inputs": [
        {
          "internalType": "address payable",
          "name": "account",
          "type": "address"
        }
      ],
      "name": "release",
      "outputs": [],
      "stateMutability": "nonpayable",
      "type": "function"
    },
    {
      "inputs": [
        {
          "internalType": "contract IERC20",
          "name": "token",
          "type": "address"
        },
        {
          "internalType": "address",
          "name": "account",
          "type": "address"
        }
      ],
      "name": "release",
      "outputs": [],
      "stateMutability": "nonpayable",
      "type": "function"
    },
    {
      "inputs": [
        {
          "internalType": "contract IERC20",
          "name": "token",
          "type": "address"
        },
        {
          "internalType": "address",
          "name": "account",
          "type": "address"
        }
      ],
      "name": "released",
      "outputs": [
        {
          "internalType": "uint256",
          "name": "",
          "type": "uint256"
        }
      ],
      "stateMutability": "view",
      "type": "function",
      "constant": true
    },
    {
      "inputs": [
        {
          "internalType": "address",
          "name": "account",
          "type": "address"
        }
      ],
      "name": "released",
      "outputs": [
        {
          "internalType": "uint256",
          "name": "",
          "type": "uint256"
        }
      ],
      "stateMutability": "view",
      "type": "function",
      "constant": true
    },
    {
      "inputs": [
        {
          "internalType": "address",
          "name": "from",
          "type": "address"
        },
        {
          "internalType": "address",
          "name": "to",
          "type": "address"
        },
        {
          "internalType": "uint256",
          "name": "tokenId",
          "type": "uint256"
        }
      ],
      "name": "safeTransferFrom",
      "outputs": [],
      "stateMutability": "nonpayable",
      "type": "function"
    },
    {
      "inputs": [
        {
          "internalType": "address",
          "name": "from",
          "type": "address"
        },
        {
          "internalType": "address",
          "name": "to",
          "type": "address"
        },
        {
          "internalType": "uint256",
          "name": "tokenId",
          "type": "uint256"
        },
        {
          "internalType": "bytes",
          "name": "_data",
          "type": "bytes"
        }
      ],
      "name": "safeTransferFrom",
      "outputs": [],
      "stateMutability": "nonpayable",
      "type": "function"
    },
    {
      "inputs": [
        {
          "internalType": "address",
          "name": "operator",
          "type": "address"
        },
        {
          "internalType": "bool",
          "name": "approved",
          "type": "bool"
        }
      ],
      "name": "setApprovalForAll",
      "outputs": [],
      "stateMutability": "nonpayable",
      "type": "function"
    },
    {
      "inputs": [
        {
          "internalType": "address",
          "name": "account",
          "type": "address"
        }
      ],
      "name": "shares",
      "outputs": [
        {
          "internalType": "uint256",
          "name": "",
          "type": "uint256"
        }
      ],
      "stateMutability": "view",
      "type": "function",
      "constant": true
    },
    {
      "inputs": [
        {
          "internalType": "bytes4",
          "name": "interfaceId",
          "type": "bytes4"
        }
      ],
      "name": "supportsInterface",
      "outputs": [
        {
          "internalType": "bool",
          "name": "",
          "type": "bool"
        }
      ],
      "stateMutability": "view",
      "type": "function",
      "constant": true
    },
    {
      "inputs": [],
      "name": "symbol",
      "outputs": [
        {
          "internalType": "string",
          "name": "",
          "type": "string"
        }
      ],
      "stateMutability": "view",
      "type": "function",
      "constant": true
    },
    {
      "inputs": [
        {
          "internalType": "uint256",
          "name": "index",
          "type": "uint256"
        }
      ],
      "name": "tokenByIndex",
      "outputs": [
        {
          "internalType": "uint256",
          "name": "",
          "type": "uint256"
        }
      ],
      "stateMutability": "view",
      "type": "function",
      "constant": true
    },
    {
      "inputs": [
        {
          "internalType": "address",
          "name": "owner",
          "type": "address"
        },
        {
          "internalType": "uint256",
          "name": "index",
          "type": "uint256"
        }
      ],
      "name": "tokenOfOwnerByIndex",
      "outputs": [
        {
          "internalType": "uint256",
          "name": "",
          "type": "uint256"
        }
      ],
      "stateMutability": "view",
      "type": "function",
      "constant": true
    },
    {
      "inputs": [
        {
          "internalType": "uint256",
          "name": "tokenId",
          "type": "uint256"
        }
      ],
      "name": "tokenURI",
      "outputs": [
        {
          "internalType": "string",
          "name": "",
          "type": "string"
        }
      ],
      "stateMutability": "view",
      "type": "function",
      "constant": true
    },
    {
      "inputs": [
        {
          "internalType": "contract IERC20",
          "name": "token",
          "type": "address"
        }
      ],
      "name": "totalReleased",
      "outputs": [
        {
          "internalType": "uint256",
          "name": "",
          "type": "uint256"
        }
      ],
      "stateMutability": "view",
      "type": "function",
      "constant": true
    },
    {
      "inputs": [],
      "name": "totalReleased",
      "outputs": [
        {
          "internalType": "uint256",
          "name": "",
          "type": "uint256"
        }
      ],
      "stateMutability": "view",
      "type": "function",
      "constant": true
    },
    {
      "inputs": [],
      "name": "totalShares",
      "outputs": [
        {
          "internalType": "uint256",
          "name": "",
          "type": "uint256"
        }
      ],
      "stateMutability": "view",
      "type": "function",
      "constant": true
    },
    {
      "inputs": [],
      "name": "totalSupply",
      "outputs": [
        {
          "internalType": "uint256",
          "name": "",
          "type": "uint256"
        }
      ],
      "stateMutability": "view",
      "type": "function",
      "constant": true
    },
    {
      "inputs": [
        {
          "internalType": "address",
          "name": "from",
          "type": "address"
        },
        {
          "internalType": "address",
          "name": "to",
          "type": "address"
        },
        {
          "internalType": "uint256",
          "name": "tokenId",
          "type": "uint256"
        }
      ],
      "name": "transferFrom",
      "outputs": [],
      "stateMutability": "nonpayable",
      "type": "function"
    },
    {
      "stateMutability": "payable",
      "type": "receive",
      "payable": true
    },
    {
      "inputs": [
        {
          "internalType": "uint256",
          "name": "numberOfTokens",
          "type": "uint256"
        }
      ],
      "name": "presaleMint",
      "outputs": [],
      "stateMutability": "payable",
      "type": "function",
      "payable": true
    },
    {
      "inputs": [],
      "name": "getTotalShares",
      "outputs": [
        {
          "internalType": "uint256",
          "name": "",
          "type": "uint256"
        }
      ],
      "stateMutability": "view",
      "type": "function",
      "constant": true
    },
    {
      "inputs": [
        {
          "internalType": "address payable",
          "name": "account",
          "type": "address"
        }
      ],
      "name": "releaseShares",
      "outputs": [],
      "stateMutability": "nonpayable",
      "type": "function"
    },
    {
      "inputs": [],
      "name": "releasedShares",
      "outputs": [
        {
          "internalType": "uint256",
          "name": "",
          "type": "uint256"
        }
      ],
      "stateMutability": "view",
      "type": "function",
      "constant": true
    },
    {
      "inputs": [
        {
          "internalType": "address",
          "name": "account",
          "type": "address"
        }
      ],
      "name": "releasedSharesTo",
      "outputs": [
        {
          "internalType": "uint256",
          "name": "",
          "type": "uint256"
        }
      ],
      "stateMutability": "view",
      "type": "function",
      "constant": true
    },
    {
      "inputs": [],
      "name": "tokensOfOwner",
      "outputs": [
        {
          "internalType": "uint256[]",
          "name": "",
          "type": "uint256[]"
        }
      ],
      "stateMutability": "view",
      "type": "function",
      "constant": true
    },
    {
      "inputs": [],
      "name": "getBaseURI",
      "outputs": [
        {
          "internalType": "string",
          "name": "",
          "type": "string"
        }
      ],
      "stateMutability": "view",
      "type": "function",
      "constant": true
    },
    {
      "inputs": [
        {
          "internalType": "string",
          "name": "newURI",
          "type": "string"
        }
      ],
      "name": "changeBaseTokenURI",
      "outputs": [],
      "stateMutability": "nonpayable",
      "type": "function"
    }
  ],
  "bytecode": "0x6080604052604051806060016040528073ae7b0af0540b8132583d5d089794b37d131ab7ef73ffffffffffffffffffffffffffffffffffffffff1673ffffffffffffffffffffffffffffffffffffffff1681526020017372ebe2a01756f1a3da2073c97b110cc82a387a6573ffffffffffffffffffffffffffffffffffffffff1673ffffffffffffffffffffffffffffffffffffffff1681526020017344e555546ffa4e3e5718c74bde9da88ff6da0d5273ffffffffffffffffffffffffffffffffffffffff1673ffffffffffffffffffffffffffffffffffffffff16815250600e906003620000f192919062000619565b506040518060600160405280603260ff168152602001601960ff168152602001601960ff16815250600f9060036200012b929190620006a8565b50600e805480602002602001604051908101604052809291908181526020018280548015620001b057602002820191906000526020600020905b8160009054906101000a900473ffffffffffffffffffffffffffffffffffffffff1673ffffffffffffffffffffffffffffffffffffffff168152602001906001019080831162000165575b5050505050600f8054806020026020016040519081016040528092919081815260200182805480156200020357602002820191906000526020600020905b815481526020019060010190808311620001ee575b50505050506040518060400160405280600b81526020017f5761676d692050756e6b730000000000000000000000000000000000000000008152506040518060400160405280600381526020017f576150000000000000000000000000000000000000000000000000000000000081525081600190805190602001906200028c929190620006ff565b508060029080519060200190620002a5929190620006ff565b5050508051825114620002ef576040517f08c379a0000000000000000000000000000000000000000000000000000000008152600401620002e69062000836565b60405180910390fd5b600082511162000336576040517f08c379a00000000000000000000000000000000000000000000000000000000081526004016200032d90620008a8565b60405180910390fd5b60005b8251811015620003a5576200038f8382815181106200035d576200035c620008ca565b5b60200260200101518383815181106200037b576200037a620008ca565b5b6020026020010151620003e060201b60201c565b80806200039c9062000932565b91505062000339565b5050506040518060800160405280604281526020016200596a6042913960109080519060200190620003d9929190620006ff565b5062000c65565b600073ffffffffffffffffffffffffffffffffffffffff168273ffffffffffffffffffffffffffffffffffffffff160362000452576040517f08c379a00000000000000000000000000000000000000000000000000000000081526004016200044990620009f5565b60405180910390fd5b6000811162000498576040517f08c379a00000000000000000000000000000000000000000000000000000000081526004016200048f9062000a67565b60405180910390fd5b6000600960008473ffffffffffffffffffffffffffffffffffffffff1673ffffffffffffffffffffffffffffffffffffffff16815260200190815260200160002054146200051d576040517f08c379a0000000000000000000000000000000000000000000000000000000008152600401620005149062000aff565b60405180910390fd5b600b829080600181540180825580915050600190039060005260206000200160009091909190916101000a81548173ffffffffffffffffffffffffffffffffffffffff021916908373ffffffffffffffffffffffffffffffffffffffff16021790555080600960008473ffffffffffffffffffffffffffffffffffffffff1673ffffffffffffffffffffffffffffffffffffffff1681526020019081526020016000208190555080600754620005d4919062000b21565b6007819055507f40c340f65e17194d14ddddb073d3c9f888e3cb52b5aae0c6c7706b4fbc905fac82826040516200060d92919062000bd4565b60405180910390a15050565b82805482825590600052602060002090810192821562000695579160200282015b82811115620006945782518260006101000a81548173ffffffffffffffffffffffffffffffffffffffff021916908373ffffffffffffffffffffffffffffffffffffffff160217905550916020019190600101906200063a565b5b509050620006a4919062000790565b5090565b828054828255906000526020600020908101928215620006ec579160200282015b82811115620006eb578251829060ff16905591602001919060010190620006c9565b5b509050620006fb919062000790565b5090565b8280546200070d9062000c30565b90600052602060002090601f0160209004810192826200073157600085556200077d565b82601f106200074c57805160ff19168380011785556200077d565b828001600101855582156200077d579182015b828111156200077c5782518255916020019190600101906200075f565b5b5090506200078c919062000790565b5090565b5b80821115620007ab57600081600090555060010162000791565b5090565b600082825260208201905092915050565b7f5061796d656e7453706c69747465723a2070617965657320616e64207368617260008201527f6573206c656e677468206d69736d617463680000000000000000000000000000602082015250565b60006200081e603283620007af565b91506200082b82620007c0565b604082019050919050565b6000602082019050818103600083015262000851816200080f565b9050919050565b7f5061796d656e7453706c69747465723a206e6f20706179656573000000000000600082015250565b600062000890601a83620007af565b91506200089d8262000858565b602082019050919050565b60006020820190508181036000830152620008c38162000881565b9050919050565b7f4e487b7100000000000000000000000000000000000000000000000000000000600052603260045260246000fd5b7f4e487b7100000000000000000000000000000000000000000000000000000000600052601160045260246000fd5b6000819050919050565b60006200093f8262000928565b91507fffffffffffffffffffffffffffffffffffffffffffffffffffffffffffffffff8203620009745762000973620008f9565b5b600182019050919050565b7f5061796d656e7453706c69747465723a206163636f756e74206973207468652060008201527f7a65726f20616464726573730000000000000000000000000000000000000000602082015250565b6000620009dd602c83620007af565b9150620009ea826200097f565b604082019050919050565b6000602082019050818103600083015262000a1081620009ce565b9050919050565b7f5061796d656e7453706c69747465723a20736861726573206172652030000000600082015250565b600062000a4f601d83620007af565b915062000a5c8262000a17565b602082019050919050565b6000602082019050818103600083015262000a828162000a40565b9050919050565b7f5061796d656e7453706c69747465723a206163636f756e7420616c726561647960008201527f2068617320736861726573000000000000000000000000000000000000000000602082015250565b600062000ae7602b83620007af565b915062000af48262000a89565b604082019050919050565b6000602082019050818103600083015262000b1a8162000ad8565b9050919050565b600062000b2e8262000928565b915062000b3b8362000928565b9250827fffffffffffffffffffffffffffffffffffffffffffffffffffffffffffffffff0382111562000b735762000b72620008f9565b5b828201905092915050565b600073ffffffffffffffffffffffffffffffffffffffff82169050919050565b600062000bab8262000b7e565b9050919050565b62000bbd8162000b9e565b82525050565b62000bce8162000928565b82525050565b600060408201905062000beb600083018562000bb2565b62000bfa602083018462000bc3565b9392505050565b7f4e487b7100000000000000000000000000000000000000000000000000000000600052602260045260246000fd5b6000600282049050600182168062000c4957607f821691505b60208210810362000c5f5762000c5e62000c01565b5b50919050565b614cf58062000c756000396000f3fe6080604052600436106102135760003560e01c8063714c539811610118578063c9b298f1116100a0578063d79779b21161006f578063d79779b21461084f578063d8344ea51461088c578063e33b7de3146108b5578063e40e97a7146108e0578063e985e9c5146109095761025a565b8063c9b298f1146107a0578063ce7c2ac2146107bc578063d2d8cb67146107f9578063d5002f2e146108245761025a565b80639852595c116100e75780639852595c14610697578063a22cb465146106d4578063a291d5f6146106fd578063b88d4fde1461073a578063c87b56dd146107635761025a565b8063714c5398146105d95780638b83209b1461060457806395d89b411461064157806395ea0f121461066c5761025a565b80633a98ef391161019b57806348b750441161016a57806348b75044146104ce5780634f6ccce7146104f75780636352211e1461053457806370a08231146105715780637146bd08146105ae5761025a565b80633a98ef3914610412578063406072a91461043d57806342842e0e1461047a57806343365303146104a35761025a565b806318160ddd116101e257806318160ddd1461032d578063191655871461035857806323b872dd146103815780632f745c59146103aa57806332cb6b0c146103e75761025a565b806301ffc9a71461025f57806306fdde031461029c578063081812fc146102c7578063095ea7b3146103045761025a565b3661025a577f6ef95f06320e7a25a04a175ca677b7052bdd97131872c2192525a629f51be770610241610946565b34604051610250929190613171565b60405180910390a1005b600080fd5b34801561026b57600080fd5b5061028660048036038101906102819190613206565b61094e565b604051610293919061324e565b60405180910390f35b3480156102a857600080fd5b506102b1610a98565b6040516102be9190613302565b60405180910390f35b3480156102d357600080fd5b506102ee60048036038101906102e99190613350565b610b2a565b6040516102fb919061337d565b60405180910390f35b34801561031057600080fd5b5061032b600480360381019061032691906133c4565b610baf565b005b34801561033957600080fd5b50610342610cc7565b60405161034f9190613404565b60405180910390f35b34801561036457600080fd5b5061037f600480360381019061037a919061345d565b610cd0565b005b34801561038d57600080fd5b506103a860048036038101906103a3919061348a565b610e7a565b005b3480156103b657600080fd5b506103d160048036038101906103cc91906133c4565b610e8a565b6040516103de9190613404565b60405180910390f35b3480156103f357600080fd5b506103fc61107a565b6040516104099190613508565b60405180910390f35b34801561041e57600080fd5b50610427611080565b6040516104349190613404565b60405180910390f35b34801561044957600080fd5b50610464600480360381019061045f9190613561565b61108a565b6040516104719190613404565b60405180910390f35b34801561048657600080fd5b506104a1600480360381019061049c919061348a565b611111565b005b3480156104af57600080fd5b506104b8611131565b6040516104c59190613404565b60405180910390f35b3480156104da57600080fd5b506104f560048036038101906104f09190613561565b611140565b005b34801561050357600080fd5b5061051e60048036038101906105199190613350565b6113f8565b60405161052b9190613404565b60405180910390f35b34801561054057600080fd5b5061055b60048036038101906105569190613350565b61144b565b604051610568919061337d565b60405180910390f35b34801561057d57600080fd5b50610598600480360381019061059391906135a1565b611461565b6040516105a59190613404565b60405180910390f35b3480156105ba57600080fd5b506105c3611549565b6040516105d09190613508565b60405180910390f35b3480156105e557600080fd5b506105ee61154e565b6040516105fb9190613302565b60405180910390f35b34801561061057600080fd5b5061062b60048036038101906106269190613350565b6115e0565b604051610638919061337d565b60405180910390f35b34801561064d57600080fd5b50610656611628565b6040516106639190613302565b60405180910390f35b34801561067857600080fd5b506106816116ba565b60405161068e919061368c565b60405180910390f35b3480156106a357600080fd5b506106be60048036038101906106b991906135a1565b611811565b6040516106cb9190613404565b60405180910390f35b3480156106e057600080fd5b506106fb60048036038101906106f691906136da565b61185a565b005b34801561070957600080fd5b50610724600480360381019061071f91906135a1565b6119da565b6040516107319190613404565b60405180910390f35b34801561074657600080fd5b50610761600480360381019061075c919061384f565b6119ec565b005b34801561076f57600080fd5b5061078a60048036038101906107859190613350565b611a48565b6040516107979190613302565b60405180910390f35b6107ba60048036038101906107b59190613350565b611aef565b005b3480156107c857600080fd5b506107e360048036038101906107de91906135a1565b611b1c565b6040516107f09190613404565b60405180910390f35b34801561080557600080fd5b5061080e611b65565b60405161081b9190613404565b60405180910390f35b34801561083057600080fd5b50610839611b71565b6040516108469190613404565b60405180910390f35b34801561085b57600080fd5b50610876600480360381019061087191906138d2565b611b80565b6040516108839190613404565b60405180910390f35b34801561089857600080fd5b506108b360048036038101906108ae919061345d565b611bc9565b005b3480156108c157600080fd5b506108ca611bd5565b6040516108d79190613404565b60405180910390f35b3480156108ec57600080fd5b50610907600480360381019061090291906139a0565b611bdf565b005b34801561091557600080fd5b50610930600480360381019061092b91906139e9565b611bf9565b60405161093d919061324e565b60405180910390f35b600033905090565b60007f80ac58cd000000000000000000000000000000000000000000000000000000007bffffffffffffffffffffffffffffffffffffffffffffffffffffffff1916827bffffffffffffffffffffffffffffffffffffffffffffffffffffffff19161480610a1957507f5b5e139f000000000000000000000000000000000000000000000000000000007bffffffffffffffffffffffffffffffffffffffffffffffffffffffff1916827bffffffffffffffffffffffffffffffffffffffffffffffffffffffff1916145b80610a8157507f780e9d63000000000000000000000000000000000000000000000000000000007bffffffffffffffffffffffffffffffffffffffffffffffffffffffff1916827bffffffffffffffffffffffffffffffffffffffffffffffffffffffff1916145b80610a915750610a9082611c8d565b5b9050919050565b606060018054610aa790613a58565b80601f0160208091040260200160405190810160405280929190818152602001828054610ad390613a58565b8015610b205780601f10610af557610100808354040283529160200191610b20565b820191906000526020600020905b815481529060010190602001808311610b0357829003601f168201915b5050505050905090565b6000610b3582611cf7565b610b74576040517f08c379a0000000000000000000000000000000000000000000000000000000008152600401610b6b90613afb565b60405180910390fd5b6005600083815260200190815260200160002060009054906101000a900473ffffffffffffffffffffffffffffffffffffffff169050919050565b6000610bba8261144b565b90508073ffffffffffffffffffffffffffffffffffffffff168373ffffffffffffffffffffffffffffffffffffffff1603610c2a576040517f08c379a0000000000000000000000000000000000000000000000000000000008152600401610c2190613b8d565b60405180910390fd5b8073ffffffffffffffffffffffffffffffffffffffff16610c49610946565b73ffffffffffffffffffffffffffffffffffffffff161480610c785750610c7781610c72610946565b611bf9565b5b610cb7576040517f08c379a0000000000000000000000000000000000000000000000000000000008152600401610cae90613c1f565b60405180910390fd5b610cc2838383611d04565b505050565b60008054905090565b6000600960008373ffffffffffffffffffffffffffffffffffffffff1673ffffffffffffffffffffffffffffffffffffffff1681526020019081526020016000205411610d52576040517f08c379a0000000000000000000000000000000000000000000000000000000008152600401610d4990613cb1565b60405180910390fd5b6000610d5c611bd5565b47610d679190613d00565b90506000610d7e8383610d7986611811565b611db6565b905060008103610dc3576040517f08c379a0000000000000000000000000000000000000000000000000000000008152600401610dba90613dc8565b60405180910390fd5b80600a60008573ffffffffffffffffffffffffffffffffffffffff1673ffffffffffffffffffffffffffffffffffffffff1681526020019081526020016000206000828254610e129190613d00565b925050819055508060086000828254610e2b9190613d00565b92505081905550610e3c8382611e24565b7fdf20fd1e76bc69d672e4814fafb2c449bba3a5369d8359adf9e05e6fde87b0568382604051610e6d929190613e47565b60405180910390a1505050565b610e85838383611f18565b505050565b6000610e9583611461565b8210610ed6576040517f08c379a0000000000000000000000000000000000000000000000000000000008152600401610ecd90613ee2565b60405180910390fd5b6000610ee0610cc7565b905060008060005b83811015611038576000600360008381526020019081526020016000206040518060400160405290816000820160009054906101000a900473ffffffffffffffffffffffffffffffffffffffff1673ffffffffffffffffffffffffffffffffffffffff1673ffffffffffffffffffffffffffffffffffffffff1681526020016000820160149054906101000a900467ffffffffffffffff1667ffffffffffffffff1667ffffffffffffffff16815250509050600073ffffffffffffffffffffffffffffffffffffffff16816000015173ffffffffffffffffffffffffffffffffffffffff1614610fda57806000015192505b8773ffffffffffffffffffffffffffffffffffffffff168373ffffffffffffffffffffffffffffffffffffffff160361102a57868403611021578195505050505050611074565b83806001019450505b508080600101915050610ee8565b506040517f08c379a000000000000000000000000000000000000000000000000000000000815260040161106b90613f74565b60405180910390fd5b92915050565b61271081565b6000600754905090565b6000600d60008473ffffffffffffffffffffffffffffffffffffffff1673ffffffffffffffffffffffffffffffffffffffff16815260200190815260200160002060008373ffffffffffffffffffffffffffffffffffffffff1673ffffffffffffffffffffffffffffffffffffffff16815260200190815260200160002054905092915050565b61112c838383604051806020016040528060008152506119ec565b505050565b600061113b611bd5565b905090565b6000600960008373ffffffffffffffffffffffffffffffffffffffff1673ffffffffffffffffffffffffffffffffffffffff16815260200190815260200160002054116111c2576040517f08c379a00000000000000000000000000000000000000000000000000000000081526004016111b990613cb1565b60405180910390fd5b60006111cd83611b80565b8373ffffffffffffffffffffffffffffffffffffffff166370a08231306040518263ffffffff1660e01b8152600401611206919061337d565b602060405180830381865afa158015611223573d6000803e3d6000fd5b505050506040513d601f19601f820116820180604052508101906112479190613fa9565b6112519190613d00565b905060006112698383611264878761108a565b611db6565b9050600081036112ae576040517f08c379a00000000000000000000000000000000000000000000000000000000081526004016112a590613dc8565b60405180910390fd5b80600d60008673ffffffffffffffffffffffffffffffffffffffff1673ffffffffffffffffffffffffffffffffffffffff16815260200190815260200160002060008573ffffffffffffffffffffffffffffffffffffffff1673ffffffffffffffffffffffffffffffffffffffff168152602001908152602001600020600082825461133a9190613d00565b9250508190555080600c60008673ffffffffffffffffffffffffffffffffffffffff1673ffffffffffffffffffffffffffffffffffffffff16815260200190815260200160002060008282546113909190613d00565b925050819055506113a2848483612456565b8373ffffffffffffffffffffffffffffffffffffffff167f3be5b7a71e84ed12875d241991c70855ac5817d847039e17a9d895c1ceb0f18a84836040516113ea929190613171565b60405180910390a250505050565b6000611402610cc7565b8210611443576040517f08c379a000000000000000000000000000000000000000000000000000000000815260040161143a90614048565b60405180910390fd5b819050919050565b6000611456826124dc565b600001519050919050565b60008073ffffffffffffffffffffffffffffffffffffffff168273ffffffffffffffffffffffffffffffffffffffff16036114d1576040517f08c379a00000000000000000000000000000000000000000000000000000000081526004016114c8906140da565b60405180910390fd5b600460008373ffffffffffffffffffffffffffffffffffffffff1673ffffffffffffffffffffffffffffffffffffffff16815260200190815260200160002060000160009054906101000a90046fffffffffffffffffffffffffffffffff166fffffffffffffffffffffffffffffffff169050919050565b601481565b60606010805461155d90613a58565b80601f016020809104026020016040519081016040528092919081815260200182805461158990613a58565b80156115d65780601f106115ab576101008083540402835291602001916115d6565b820191906000526020600020905b8154815290600101906020018083116115b957829003601f168201915b5050505050905090565b6000600b82815481106115f6576115f56140fa565b5b9060005260206000200160009054906101000a900473ffffffffffffffffffffffffffffffffffffffff169050919050565b60606002805461163790613a58565b80601f016020809104026020016040519081016040528092919081815260200182805461166390613a58565b80156116b05780601f10611685576101008083540402835291602001916116b0565b820191906000526020600020905b81548152906001019060200180831161169357829003601f168201915b5050505050905090565b606060006116c733611461565b90506000810361172357600067ffffffffffffffff8111156116ec576116eb613724565b5b60405190808252806020026020018201604052801561171a5781602001602082028036833780820191505090505b5091505061180e565b60008167ffffffffffffffff81111561173f5761173e613724565b5b60405190808252806020026020018201604052801561176d5781602001602082028036833780820191505090505b509050600061177a610cc7565b90506000805b82811015611805573373ffffffffffffffffffffffffffffffffffffffff166117a88261144b565b73ffffffffffffffffffffffffffffffffffffffff16036117f257808483815181106117d7576117d66140fa565b5b60200260200101818152505081806117ee90614129565b9250505b80806117fd90614129565b915050611780565b83955050505050505b90565b6000600a60008373ffffffffffffffffffffffffffffffffffffffff1673ffffffffffffffffffffffffffffffffffffffff168152602001908152602001600020549050919050565b611862610946565b73ffffffffffffffffffffffffffffffffffffffff168273ffffffffffffffffffffffffffffffffffffffff16036118cf576040517f08c379a00000000000000000000000000000000000000000000000000000000081526004016118c6906141bd565b60405180910390fd5b80600660006118dc610946565b73ffffffffffffffffffffffffffffffffffffffff1673ffffffffffffffffffffffffffffffffffffffff16815260200190815260200160002060008473ffffffffffffffffffffffffffffffffffffffff1673ffffffffffffffffffffffffffffffffffffffff16815260200190815260200160002060006101000a81548160ff0219169083151502179055508173ffffffffffffffffffffffffffffffffffffffff16611989610946565b73ffffffffffffffffffffffffffffffffffffffff167f17307eab39ab6107e8899845ad3d59bd9653f200f220920489ca2b5937696c31836040516119ce919061324e565b60405180910390a35050565b60006119e582611811565b9050919050565b6119f7848484611f18565b611a0384848484612676565b611a42576040517f08c379a0000000000000000000000000000000000000000000000000000000008152600401611a399061424f565b60405180910390fd5b50505050565b6060611a5382611cf7565b611a92576040517f08c379a0000000000000000000000000000000000000000000000000000000008152600401611a89906142e1565b60405180910390fd5b6000611a9c6127fd565b90506000815103611abc5760405180602001604052806000815250611ae7565b80611ac68461288f565b604051602001611ad792919061433d565b6040516020818303038152906040525b915050919050565b6000611b0c8267016345785d8a00006129ef90919063ffffffff16565b9050611b183383612a05565b5050565b6000600960008373ffffffffffffffffffffffffffffffffffffffff1673ffffffffffffffffffffffffffffffffffffffff168152602001908152602001600020549050919050565b67016345785d8a000081565b6000611b7b611080565b905090565b6000600c60008373ffffffffffffffffffffffffffffffffffffffff1673ffffffffffffffffffffffffffffffffffffffff168152602001908152602001600020549050919050565b611bd281610cd0565b50565b6000600854905090565b8060109080519060200190611bf592919061303a565b5050565b6000600660008473ffffffffffffffffffffffffffffffffffffffff1673ffffffffffffffffffffffffffffffffffffffff16815260200190815260200160002060008373ffffffffffffffffffffffffffffffffffffffff1673ffffffffffffffffffffffffffffffffffffffff16815260200190815260200160002060009054906101000a900460ff16905092915050565b60007f01ffc9a7000000000000000000000000000000000000000000000000000000007bffffffffffffffffffffffffffffffffffffffffffffffffffffffff1916827bffffffffffffffffffffffffffffffffffffffffffffffffffffffff1916149050919050565b6000805482109050919050565b826005600084815260200190815260200160002060006101000a81548173ffffffffffffffffffffffffffffffffffffffff021916908373ffffffffffffffffffffffffffffffffffffffff160217905550818373ffffffffffffffffffffffffffffffffffffffff168273ffffffffffffffffffffffffffffffffffffffff167f8c5be1e5ebec7d5bd14f71427d1e84f3dd0314c0f7b2291e5b200ac8c7c3b92560405160405180910390a4505050565b600081600754600960008773ffffffffffffffffffffffffffffffffffffffff1673ffffffffffffffffffffffffffffffffffffffff1681526020019081526020016000205485611e079190614361565b611e1191906143ea565b611e1b919061441b565b90509392505050565b80471015611e67576040517f08c379a0000000000000000000000000000000000000000000000000000000008152600401611e5e9061449b565b60405180910390fd5b60008273ffffffffffffffffffffffffffffffffffffffff1682604051611e8d906144ec565b60006040518083038185875af1925050503d8060008114611eca576040519150601f19603f3d011682016040523d82523d6000602084013e611ecf565b606091505b5050905080611f13576040517f08c379a0000000000000000000000000000000000000000000000000000000008152600401611f0a90614573565b60405180910390fd5b505050565b6000611f23826124dc565b90506000816000015173ffffffffffffffffffffffffffffffffffffffff16611f4a610946565b73ffffffffffffffffffffffffffffffffffffffff161480611fa65750611f6f610946565b73ffffffffffffffffffffffffffffffffffffffff16611f8e84610b2a565b73ffffffffffffffffffffffffffffffffffffffff16145b80611fc25750611fc18260000151611fbc610946565b611bf9565b5b905080612004576040517f08c379a0000000000000000000000000000000000000000000000000000000008152600401611ffb90614605565b60405180910390fd5b8473ffffffffffffffffffffffffffffffffffffffff16826000015173ffffffffffffffffffffffffffffffffffffffff1614612076576040517f08c379a000000000000000000000000000000000000000000000000000000000815260040161206d90614697565b60405180910390fd5b600073ffffffffffffffffffffffffffffffffffffffff168473ffffffffffffffffffffffffffffffffffffffff16036120e5576040517f08c379a00000000000000000000000000000000000000000000000000000000081526004016120dc90614729565b60405180910390fd5b6120f28585856001612a23565b6121026000848460000151611d04565b6001600460008773ffffffffffffffffffffffffffffffffffffffff1673ffffffffffffffffffffffffffffffffffffffff16815260200190815260200160002060000160008282829054906101000a90046fffffffffffffffffffffffffffffffff160392506101000a8154816fffffffffffffffffffffffffffffffff02191690836fffffffffffffffffffffffffffffffff1602179055506001600460008673ffffffffffffffffffffffffffffffffffffffff1673ffffffffffffffffffffffffffffffffffffffff16815260200190815260200160002060000160008282829054906101000a90046fffffffffffffffffffffffffffffffff160192506101000a8154816fffffffffffffffffffffffffffffffff02191690836fffffffffffffffffffffffffffffffff160217905550836003600085815260200190815260200160002060000160006101000a81548173ffffffffffffffffffffffffffffffffffffffff021916908373ffffffffffffffffffffffffffffffffffffffff160217905550426003600085815260200190815260200160002060000160146101000a81548167ffffffffffffffff021916908367ffffffffffffffff1602179055506000600184019050600073ffffffffffffffffffffffffffffffffffffffff166003600083815260200190815260200160002060000160009054906101000a900473ffffffffffffffffffffffffffffffffffffffff1673ffffffffffffffffffffffffffffffffffffffff16036123e65761234581611cf7565b156123e55782600001516003600083815260200190815260200160002060000160006101000a81548173ffffffffffffffffffffffffffffffffffffffff021916908373ffffffffffffffffffffffffffffffffffffffff16021790555082602001516003600083815260200190815260200160002060000160146101000a81548167ffffffffffffffff021916908367ffffffffffffffff1602179055505b5b50828473ffffffffffffffffffffffffffffffffffffffff168673ffffffffffffffffffffffffffffffffffffffff167fddf252ad1be2c89b69c2b068fc378daa952ba7f163c4a11628f55a4df523b3ef60405160405180910390a461244f8585856001612a29565b5050505050565b6124d78363a9059cbb60e01b8484604051602401612475929190613171565b604051602081830303815290604052907bffffffffffffffffffffffffffffffffffffffffffffffffffffffff19166020820180517bffffffffffffffffffffffffffffffffffffffffffffffffffffffff8381831617835250505050612a2f565b505050565b6124e46130c0565b6124ed82611cf7565b61252c576040517f08c379a0000000000000000000000000000000000000000000000000000000008152600401612523906147bb565b60405180910390fd5b60008290505b60008110612635576000600360008381526020019081526020016000206040518060400160405290816000820160009054906101000a900473ffffffffffffffffffffffffffffffffffffffff1673ffffffffffffffffffffffffffffffffffffffff1673ffffffffffffffffffffffffffffffffffffffff1681526020016000820160149054906101000a900467ffffffffffffffff1667ffffffffffffffff1667ffffffffffffffff16815250509050600073ffffffffffffffffffffffffffffffffffffffff16816000015173ffffffffffffffffffffffffffffffffffffffff1614612626578092505050612671565b50808060019003915050612532565b506040517f08c379a00000000000000000000000000000000000000000000000000000000081526004016126689061484d565b60405180910390fd5b919050565b60006126978473ffffffffffffffffffffffffffffffffffffffff16612af6565b156127f0578373ffffffffffffffffffffffffffffffffffffffff1663150b7a026126c0610946565b8786866040518563ffffffff1660e01b81526004016126e294939291906148c2565b6020604051808303816000875af192505050801561271e57506040513d601f19601f8201168201806040525081019061271b9190614923565b60015b6127a0573d806000811461274e576040519150601f19603f3d011682016040523d82523d6000602084013e612753565b606091505b506000815103612798576040517f08c379a000000000000000000000000000000000000000000000000000000000815260040161278f9061424f565b60405180910390fd5b805181602001fd5b63150b7a0260e01b7bffffffffffffffffffffffffffffffffffffffffffffffffffffffff1916817bffffffffffffffffffffffffffffffffffffffffffffffffffffffff1916149150506127f5565b600190505b949350505050565b60606010805461280c90613a58565b80601f016020809104026020016040519081016040528092919081815260200182805461283890613a58565b80156128855780601f1061285a57610100808354040283529160200191612885565b820191906000526020600020905b81548152906001019060200180831161286857829003601f168201915b5050505050905090565b6060600082036128d6576040518060400160405280600181526020017f300000000000000000000000000000000000000000000000000000000000000081525090506129ea565b600082905060005b600082146129085780806128f190614129565b915050600a8261290191906143ea565b91506128de565b60008167ffffffffffffffff81111561292457612923613724565b5b6040519080825280601f01601f1916602001820160405280156129565781602001600182028036833780820191505090505b5090505b600085146129e35760018261296f919061441b565b9150600a8561297e9190614950565b603061298a9190613d00565b60f81b8183815181106129a05761299f6140fa565b5b60200101907effffffffffffffffffffffffffffffffffffffffffffffffffffffffffffff1916908160001a905350600a856129dc91906143ea565b945061295a565b8093505050505b919050565b600081836129fd9190614361565b905092915050565b612a1f828260405180602001604052806000815250612b19565b5050565b50505050565b50505050565b6000612a91826040518060400160405280602081526020017f5361666545524332303a206c6f772d6c6576656c2063616c6c206661696c65648152508573ffffffffffffffffffffffffffffffffffffffff16612b2b9092919063ffffffff16565b9050600081511115612af15780806020019051810190612ab19190614996565b612af0576040517f08c379a0000000000000000000000000000000000000000000000000000000008152600401612ae790614a35565b60405180910390fd5b5b505050565b6000808273ffffffffffffffffffffffffffffffffffffffff163b119050919050565b612b268383836001612b43565b505050565b6060612b3a8484600085612ebf565b90509392505050565b600080549050600073ffffffffffffffffffffffffffffffffffffffff168573ffffffffffffffffffffffffffffffffffffffff1603612bb8576040517f08c379a0000000000000000000000000000000000000000000000000000000008152600401612baf90614ac7565b60405180910390fd5b60008403612bfb576040517f08c379a0000000000000000000000000000000000000000000000000000000008152600401612bf290614b59565b60405180910390fd5b612c086000868387612a23565b83600460008773ffffffffffffffffffffffffffffffffffffffff1673ffffffffffffffffffffffffffffffffffffffff16815260200190815260200160002060000160008282829054906101000a90046fffffffffffffffffffffffffffffffff160192506101000a8154816fffffffffffffffffffffffffffffffff02191690836fffffffffffffffffffffffffffffffff16021790555083600460008773ffffffffffffffffffffffffffffffffffffffff1673ffffffffffffffffffffffffffffffffffffffff16815260200190815260200160002060000160108282829054906101000a90046fffffffffffffffffffffffffffffffff160192506101000a8154816fffffffffffffffffffffffffffffffff02191690836fffffffffffffffffffffffffffffffff160217905550846003600083815260200190815260200160002060000160006101000a81548173ffffffffffffffffffffffffffffffffffffffff021916908373ffffffffffffffffffffffffffffffffffffffff160217905550426003600083815260200190815260200160002060000160146101000a81548167ffffffffffffffff021916908367ffffffffffffffff160217905550600081905060005b85811015612ea257818773ffffffffffffffffffffffffffffffffffffffff16600073ffffffffffffffffffffffffffffffffffffffff167fddf252ad1be2c89b69c2b068fc378daa952ba7f163c4a11628f55a4df523b3ef60405160405180910390a48315612e8d57612e4d6000888488612676565b612e8c576040517f08c379a0000000000000000000000000000000000000000000000000000000008152600401612e839061424f565b60405180910390fd5b5b81806001019250508080600101915050612dd6565b508060008190555050612eb86000868387612a29565b5050505050565b606082471015612f04576040517f08c379a0000000000000000000000000000000000000000000000000000000008152600401612efb90614beb565b60405180910390fd5b612f0d85612af6565b612f4c576040517f08c379a0000000000000000000000000000000000000000000000000000000008152600401612f4390614c57565b60405180910390fd5b6000808673ffffffffffffffffffffffffffffffffffffffff168587604051612f759190614ca8565b60006040518083038185875af1925050503d8060008114612fb2576040519150601f19603f3d011682016040523d82523d6000602084013e612fb7565b606091505b5091509150612fc7828286612fd3565b92505050949350505050565b60608315612fe357829050613033565b600083511115612ff65782518084602001fd5b816040517f08c379a000000000000000000000000000000000000000000000000000000000815260040161302a9190613302565b60405180910390fd5b9392505050565b82805461304690613a58565b90600052602060002090601f01602090048101928261306857600085556130af565b82601f1061308157805160ff19168380011785556130af565b828001600101855582156130af579182015b828111156130ae578251825591602001919060010190613093565b5b5090506130bc91906130fa565b5090565b6040518060400160405280600073ffffffffffffffffffffffffffffffffffffffff168152602001600067ffffffffffffffff1681525090565b5b808211156131135760008160009055506001016130fb565b5090565b600073ffffffffffffffffffffffffffffffffffffffff82169050919050565b600061314282613117565b9050919050565b61315281613137565b82525050565b6000819050919050565b61316b81613158565b82525050565b60006040820190506131866000830185613149565b6131936020830184613162565b9392505050565b6000604051905090565b600080fd5b600080fd5b60007fffffffff0000000000000000000000000000000000000000000000000000000082169050919050565b6131e3816131ae565b81146131ee57600080fd5b50565b600081359050613200816131da565b92915050565b60006020828403121561321c5761321b6131a4565b5b600061322a848285016131f1565b91505092915050565b60008115159050919050565b61324881613233565b82525050565b6000602082019050613263600083018461323f565b92915050565b600081519050919050565b600082825260208201905092915050565b60005b838110156132a3578082015181840152602081019050613288565b838111156132b2576000848401525b50505050565b6000601f19601f8301169050919050565b60006132d482613269565b6132de8185613274565b93506132ee818560208601613285565b6132f7816132b8565b840191505092915050565b6000602082019050818103600083015261331c81846132c9565b905092915050565b61332d81613158565b811461333857600080fd5b50565b60008135905061334a81613324565b92915050565b600060208284031215613366576133656131a4565b5b60006133748482850161333b565b91505092915050565b60006020820190506133926000830184613149565b92915050565b6133a181613137565b81146133ac57600080fd5b50565b6000813590506133be81613398565b92915050565b600080604083850312156133db576133da6131a4565b5b60006133e9858286016133af565b92505060206133fa8582860161333b565b9150509250929050565b60006020820190506134196000830184613162565b92915050565b600061342a82613117565b9050919050565b61343a8161341f565b811461344557600080fd5b50565b60008135905061345781613431565b92915050565b600060208284031215613473576134726131a4565b5b600061348184828501613448565b91505092915050565b6000806000606084860312156134a3576134a26131a4565b5b60006134b1868287016133af565b93505060206134c2868287016133af565b92505060406134d38682870161333b565b9150509250925092565b60006fffffffffffffffffffffffffffffffff82169050919050565b613502816134dd565b82525050565b600060208201905061351d60008301846134f9565b92915050565b600061352e82613137565b9050919050565b61353e81613523565b811461354957600080fd5b50565b60008135905061355b81613535565b92915050565b60008060408385031215613578576135776131a4565b5b60006135868582860161354c565b9250506020613597858286016133af565b9150509250929050565b6000602082840312156135b7576135b66131a4565b5b60006135c5848285016133af565b91505092915050565b600081519050919050565b600082825260208201905092915050565b6000819050602082019050919050565b61360381613158565b82525050565b600061361583836135fa565b60208301905092915050565b6000602082019050919050565b6000613639826135ce565b61364381856135d9565b935061364e836135ea565b8060005b8381101561367f5781516136668882613609565b975061367183613621565b925050600181019050613652565b5085935050505092915050565b600060208201905081810360008301526136a6818461362e565b905092915050565b6136b781613233565b81146136c257600080fd5b50565b6000813590506136d4816136ae565b92915050565b600080604083850312156136f1576136f06131a4565b5b60006136ff858286016133af565b9250506020613710858286016136c5565b9150509250929050565b600080fd5b600080fd5b7f4e487b7100000000000000000000000000000000000000000000000000000000600052604160045260246000fd5b61375c826132b8565b810181811067ffffffffffffffff8211171561377b5761377a613724565b5b80604052505050565b600061378e61319a565b905061379a8282613753565b919050565b600067ffffffffffffffff8211156137ba576137b9613724565b5b6137c3826132b8565b9050602081019050919050565b82818337600083830152505050565b60006137f26137ed8461379f565b613784565b90508281526020810184848401111561380e5761380d61371f565b5b6138198482856137d0565b509392505050565b600082601f8301126138365761383561371a565b5b81356138468482602086016137df565b91505092915050565b60008060008060808587031215613869576138686131a4565b5b6000613877878288016133af565b9450506020613888878288016133af565b93505060406138998782880161333b565b925050606085013567ffffffffffffffff8111156138ba576138b96131a9565b5b6138c687828801613821565b91505092959194509250565b6000602082840312156138e8576138e76131a4565b5b60006138f68482850161354c565b91505092915050565b600067ffffffffffffffff82111561391a57613919613724565b5b613923826132b8565b9050602081019050919050565b600061394361393e846138ff565b613784565b90508281526020810184848401111561395f5761395e61371f565b5b61396a8482856137d0565b509392505050565b600082601f8301126139875761398661371a565b5b8135613997848260208601613930565b91505092915050565b6000602082840312156139b6576139b56131a4565b5b600082013567ffffffffffffffff8111156139d4576139d36131a9565b5b6139e084828501613972565b91505092915050565b60008060408385031215613a00576139ff6131a4565b5b6000613a0e858286016133af565b9250506020613a1f858286016133af565b9150509250929050565b7f4e487b7100000000000000000000000000000000000000000000000000000000600052602260045260246000fd5b60006002820490506001821680613a7057607f821691505b602082108103613a8357613a82613a29565b5b50919050565b7f455243373231413a20617070726f76656420717565727920666f72206e6f6e6560008201527f78697374656e7420746f6b656e00000000000000000000000000000000000000602082015250565b6000613ae5602d83613274565b9150613af082613a89565b604082019050919050565b60006020820190508181036000830152613b1481613ad8565b9050919050565b7f455243373231413a20617070726f76616c20746f2063757272656e74206f776e60008201527f6572000000000000000000000000000000000000000000000000000000000000602082015250565b6000613b77602283613274565b9150613b8282613b1b565b604082019050919050565b60006020820190508181036000830152613ba681613b6a565b9050919050565b7f455243373231413a20617070726f76652063616c6c6572206973206e6f74206f60008201527f776e6572206e6f7220617070726f76656420666f7220616c6c00000000000000602082015250565b6000613c09603983613274565b9150613c1482613bad565b604082019050919050565b60006020820190508181036000830152613c3881613bfc565b9050919050565b7f5061796d656e7453706c69747465723a206163636f756e7420686173206e6f2060008201527f7368617265730000000000000000000000000000000000000000000000000000602082015250565b6000613c9b602683613274565b9150613ca682613c3f565b604082019050919050565b60006020820190508181036000830152613cca81613c8e565b9050919050565b7f4e487b7100000000000000000000000000000000000000000000000000000000600052601160045260246000fd5b6000613d0b82613158565b9150613d1683613158565b9250827fffffffffffffffffffffffffffffffffffffffffffffffffffffffffffffffff03821115613d4b57613d4a613cd1565b5b828201905092915050565b7f5061796d656e7453706c69747465723a206163636f756e74206973206e6f742060008201527f647565207061796d656e74000000000000000000000000000000000000000000602082015250565b6000613db2602b83613274565b9150613dbd82613d56565b604082019050919050565b60006020820190508181036000830152613de181613da5565b9050919050565b6000819050919050565b6000613e0d613e08613e0384613117565b613de8565b613117565b9050919050565b6000613e1f82613df2565b9050919050565b6000613e3182613e14565b9050919050565b613e4181613e26565b82525050565b6000604082019050613e5c6000830185613e38565b613e696020830184613162565b9392505050565b7f455243373231413a206f776e657220696e646578206f7574206f6620626f756e60008201527f6473000000000000000000000000000000000000000000000000000000000000602082015250565b6000613ecc602283613274565b9150613ed782613e70565b604082019050919050565b60006020820190508181036000830152613efb81613ebf565b9050919050565b7f455243373231413a20756e61626c6520746f2067657420746f6b656e206f662060008201527f6f776e657220627920696e646578000000000000000000000000000000000000602082015250565b6000613f5e602e83613274565b9150613f6982613f02565b604082019050919050565b60006020820190508181036000830152613f8d81613f51565b9050919050565b600081519050613fa381613324565b92915050565b600060208284031215613fbf57613fbe6131a4565b5b6000613fcd84828501613f94565b91505092915050565b7f455243373231413a20676c6f62616c20696e646578206f7574206f6620626f7560008201527f6e64730000000000000000000000000000000000000000000000000000000000602082015250565b6000614032602383613274565b915061403d82613fd6565b604082019050919050565b6000602082019050818103600083015261406181614025565b9050919050565b7f455243373231413a2062616c616e636520717565727920666f7220746865207a60008201527f65726f2061646472657373000000000000000000000000000000000000000000602082015250565b60006140c4602b83613274565b91506140cf82614068565b604082019050919050565b600060208201905081810360008301526140f3816140b7565b9050919050565b7f4e487b7100000000000000000000000000000000000000000000000000000000600052603260045260246000fd5b600061413482613158565b91507fffffffffffffffffffffffffffffffffffffffffffffffffffffffffffffffff820361416657614165613cd1565b5b600182019050919050565b7f455243373231413a20617070726f766520746f2063616c6c6572000000000000600082015250565b60006141a7601a83613274565b91506141b282614171565b602082019050919050565b600060208201905081810360008301526141d68161419a565b9050919050565b7f455243373231413a207472616e7366657220746f206e6f6e204552433732315260008201527f6563656976657220696d706c656d656e74657200000000000000000000000000602082015250565b6000614239603383613274565b9150614244826141dd565b604082019050919050565b600060208201905081810360008301526142688161422c565b9050919050565b7f4552433732314d657461646174613a2055524920717565727920666f72206e6f60008201527f6e6578697374656e7420746f6b656e0000000000000000000000000000000000602082015250565b60006142cb602f83613274565b91506142d68261426f565b604082019050919050565b600060208201905081810360008301526142fa816142be565b9050919050565b600081905092915050565b600061431782613269565b6143218185614301565b9350614331818560208601613285565b80840191505092915050565b6000614349828561430c565b9150614355828461430c565b91508190509392505050565b600061436c82613158565b915061437783613158565b9250817fffffffffffffffffffffffffffffffffffffffffffffffffffffffffffffffff04831182151516156143b0576143af613cd1565b5b828202905092915050565b7f4e487b7100000000000000000000000000000000000000000000000000000000600052601260045260246000fd5b60006143f582613158565b915061440083613158565b9250826144105761440f6143bb565b5b828204905092915050565b600061442682613158565b915061443183613158565b92508282101561444457614443613cd1565b5b828203905092915050565b7f416464726573733a20696e73756666696369656e742062616c616e6365000000600082015250565b6000614485601d83613274565b91506144908261444f565b602082019050919050565b600060208201905081810360008301526144b481614478565b9050919050565b600081905092915050565b50565b60006144d66000836144bb565b91506144e1826144c6565b600082019050919050565b60006144f7826144c9565b9150819050919050565b7f416464726573733a20756e61626c6520746f2073656e642076616c75652c207260008201527f6563697069656e74206d61792068617665207265766572746564000000000000602082015250565b600061455d603a83613274565b915061456882614501565b604082019050919050565b6000602082019050818103600083015261458c81614550565b9050919050565b7f455243373231413a207472616e736665722063616c6c6572206973206e6f742060008201527f6f776e6572206e6f7220617070726f7665640000000000000000000000000000602082015250565b60006145ef603283613274565b91506145fa82614593565b604082019050919050565b6000602082019050818103600083015261461e816145e2565b9050919050565b7f455243373231413a207472616e736665722066726f6d20696e636f727265637460008201527f206f776e65720000000000000000000000000000000000000000000000000000602082015250565b6000614681602683613274565b915061468c82614625565b604082019050919050565b600060208201905081810360008301526146b081614674565b9050919050565b7f455243373231413a207472616e7366657220746f20746865207a65726f20616460008201527f6472657373000000000000000000000000000000000000000000000000000000602082015250565b6000614713602583613274565b915061471e826146b7565b604082019050919050565b6000602082019050818103600083015261474281614706565b9050919050565b7f455243373231413a206f776e657220717565727920666f72206e6f6e6578697360008201527f74656e7420746f6b656e00000000000000000000000000000000000000000000602082015250565b60006147a5602a83613274565b91506147b082614749565b604082019050919050565b600060208201905081810360008301526147d481614798565b9050919050565b7f455243373231413a20756e61626c6520746f2064657465726d696e652074686560008201527f206f776e6572206f6620746f6b656e0000000000000000000000000000000000602082015250565b6000614837602f83613274565b9150614842826147db565b604082019050919050565b600060208201905081810360008301526148668161482a565b9050919050565b600081519050919050565b600082825260208201905092915050565b60006148948261486d565b61489e8185614878565b93506148ae818560208601613285565b6148b7816132b8565b840191505092915050565b60006080820190506148d76000830187613149565b6148e46020830186613149565b6148f16040830185613162565b81810360608301526149038184614889565b905095945050505050565b60008151905061491d816131da565b92915050565b600060208284031215614939576149386131a4565b5b60006149478482850161490e565b91505092915050565b600061495b82613158565b915061496683613158565b925082614976576149756143bb565b5b828206905092915050565b600081519050614990816136ae565b92915050565b6000602082840312156149ac576149ab6131a4565b5b60006149ba84828501614981565b91505092915050565b7f5361666545524332303a204552433230206f7065726174696f6e20646964206e60008201527f6f74207375636365656400000000000000000000000000000000000000000000602082015250565b6000614a1f602a83613274565b9150614a2a826149c3565b604082019050919050565b60006020820190508181036000830152614a4e81614a12565b9050919050565b7f455243373231413a206d696e7420746f20746865207a65726f2061646472657360008201527f7300000000000000000000000000000000000000000000000000000000000000602082015250565b6000614ab1602183613274565b9150614abc82614a55565b604082019050919050565b60006020820190508181036000830152614ae081614aa4565b9050919050565b7f455243373231413a207175616e74697479206d7573742062652067726561746560008201527f72207468616e2030000000000000000000000000000000000000000000000000602082015250565b6000614b43602883613274565b9150614b4e82614ae7565b604082019050919050565b60006020820190508181036000830152614b7281614b36565b9050919050565b7f416464726573733a20696e73756666696369656e742062616c616e636520666f60008201527f722063616c6c0000000000000000000000000000000000000000000000000000602082015250565b6000614bd5602683613274565b9150614be082614b79565b604082019050919050565b60006020820190508181036000830152614c0481614bc8565b9050919050565b7f416464726573733a2063616c6c20746f206e6f6e2d636f6e7472616374000000600082015250565b6000614c41601d83613274565b9150614c4c82614c0b565b602082019050919050565b60006020820190508181036000830152614c7081614c34565b9050919050565b6000614c828261486d565b614c8c81856144bb565b9350614c9c818560208601613285565b80840191505092915050565b6000614cb48284614c77565b91508190509291505056fea264697066735822122054fd8ec3765b83ce422d14d57fd1623d96fd695ba3ee1a94af4f00d7ece1e0f564736f6c634300080d0033687474703a2f2f3132372e302e302e313a31303030302f64657673746f72656163636f756e74312f7761676d692d70756e6b732f6e66742f70756e6b2f6a736f6e2f",
  "immutableReferences": {},
  "source": "// SPDX-License-Identifier: MIT\r\npragma solidity >=0.4.21 <8.10.0;\r\n\r\nimport \"erc721a/contracts/ERC721A.sol\";\r\nimport \"@openzeppelin/contracts/utils/math/SafeMath.sol\";\r\nimport \"@openzeppelin/contracts/finance/PaymentSplitter.sol\";\r\n\r\ncontract MintPunks is ERC721A, PaymentSplitter {\r\n    using SafeMath for uint256;\r\n\r\n    address[] private PAY_LIST = [\r\n        0xAE7B0aF0540B8132583d5d089794b37d131ab7ef,\r\n        0x72ebe2a01756f1A3dA2073c97B110CC82A387a65,\r\n        0x44e555546fFA4e3e5718C74BDe9Da88fF6dA0d52\r\n    ];\r\n    uint256[] private PAY_SHARES = [50, 25, 25];\r\n    uint256 public constant TOKEN_PRICE = 0.1 ether;\r\n    uint128 public constant MAX_SUPPLY = 10000;\r\n    uint128 public constant MAX_PURCHASE = 20;\r\n    string private baseTokenUri;\r\n\r\n    constructor()\r\n        payable\r\n        ERC721A(\"Wagmi Punks\", \"WaP\")\r\n        PaymentSplitter(PAY_LIST, PAY_SHARES)\r\n    {\r\n        baseTokenUri = \"http://127.0.0.1:10000/devstoreaccount1/wagmi-punks/nft/punk/json/\";\r\n    }\r\n\r\n    function presaleMint(uint256 numberOfTokens) public payable {\r\n        uint256 totalCost = TOKEN_PRICE.mul(numberOfTokens);\r\n        // require(totalCost < msg.value, \"Ether value sent is too low\");\r\n        // require(totalCost > msg.value, \"Ether value sent is too high\");\r\n\r\n        _safeMint(msg.sender, numberOfTokens);\r\n    }\r\n\r\n    function getTotalShares() public view returns (uint256) {\r\n        return totalShares();\r\n    }\r\n\r\n    function releaseShares(address payable account) public {\r\n        return release(account);\r\n    }\r\n\r\n    function releasedShares() public view returns (uint256) {\r\n        return totalReleased();\r\n    }\r\n\r\n    function releasedSharesTo(address account) public view returns (uint256) {\r\n        return released(account);\r\n    }\r\n\r\n    function tokensOfOwner() public view returns (uint256[] memory) {\r\n        uint256 tokenCount = balanceOf(msg.sender);\r\n\r\n        if (tokenCount == 0) {\r\n            // Return an empty array\r\n            return new uint256[](0);\r\n        } else {\r\n            uint256[] memory result = new uint256[](tokenCount);\r\n            uint256 totalPunks = totalSupply();\r\n            uint256 resultIndex = 0;\r\n\r\n            // We count on the fact that all cats have IDs starting at 1 and increasing\r\n            // sequentially up to the totalCat count.\r\n            uint256 punkId;\r\n\r\n            for (punkId = 0; punkId < totalPunks; punkId++) {\r\n                if (ownerOf(punkId) == msg.sender) {\r\n                    result[resultIndex] = punkId;\r\n                    resultIndex++;\r\n                }\r\n            }\r\n\r\n            return result;\r\n        }\r\n    }\r\n\r\n    function getBaseURI() public view returns (string memory) {\r\n        return baseTokenUri;\r\n    }\r\n\r\n    function _baseURI() internal view virtual override returns (string memory) {\r\n        return baseTokenUri;\r\n    }\r\n\r\n    function changeBaseTokenURI(string memory newURI) public {\r\n        baseTokenUri = newURI;\r\n    }\r\n\r\n    modifier isTokenOwner(uint256 tokenId) {\r\n        address tokenAddress = ownerOf(tokenId);\r\n        require(\r\n            tokenAddress == msg.sender,\r\n            \"Method can only be called by the ownder of this token\"\r\n        );\r\n        _;\r\n    }\r\n}\r\n",
  "sourcePath": "C:\\Users\\paandersson\\Documents\\Dev\\punks\\clientapp\\contracts\\MintPunks.sol",
  "compiler": {
    "name": "solc",
    "version": "0.8.13+commit.abaa5c0e.Emscripten.clang"
  },
  "schemaVersion": "3.4.4",
  "updatedAt": "2022-04-11T08:36:22.484Z",
  "networkType": "ethereum",
  "devdoc": {
    "kind": "dev",
    "methods": {
      "approve(address,uint256)": {
        "details": "See {IERC721-approve}."
      },
      "balanceOf(address)": {
        "details": "See {IERC721-balanceOf}."
      },
      "getApproved(uint256)": {
        "details": "See {IERC721-getApproved}."
      },
      "isApprovedForAll(address,address)": {
        "details": "See {IERC721-isApprovedForAll}."
      },
      "name()": {
        "details": "See {IERC721Metadata-name}."
      },
      "ownerOf(uint256)": {
        "details": "See {IERC721-ownerOf}."
      },
      "payee(uint256)": {
        "details": "Getter for the address of the payee number `index`."
      },
      "release(address)": {
        "details": "Triggers a transfer to `account` of the amount of Ether they are owed, according to their percentage of the total shares and their previous withdrawals."
      },
      "release(address,address)": {
        "details": "Triggers a transfer to `account` of the amount of `token` tokens they are owed, according to their percentage of the total shares and their previous withdrawals. `token` must be the address of an IERC20 contract."
      },
      "released(address)": {
        "details": "Getter for the amount of Ether already released to a payee."
      },
      "released(address,address)": {
        "details": "Getter for the amount of `token` tokens already released to a payee. `token` should be the address of an IERC20 contract."
      },
      "safeTransferFrom(address,address,uint256)": {
        "details": "See {IERC721-safeTransferFrom}."
      },
      "safeTransferFrom(address,address,uint256,bytes)": {
        "details": "See {IERC721-safeTransferFrom}."
      },
      "setApprovalForAll(address,bool)": {
        "details": "See {IERC721-setApprovalForAll}."
      },
      "shares(address)": {
        "details": "Getter for the amount of shares held by an account."
      },
      "supportsInterface(bytes4)": {
        "details": "See {IERC165-supportsInterface}."
      },
      "symbol()": {
        "details": "See {IERC721Metadata-symbol}."
      },
      "tokenByIndex(uint256)": {
        "details": "See {IERC721Enumerable-tokenByIndex}."
      },
      "tokenOfOwnerByIndex(address,uint256)": {
        "details": "See {IERC721Enumerable-tokenOfOwnerByIndex}. This read function is O(totalSupply). If calling from a separate contract, be sure to test gas first. It may also degrade with extremely large collection sizes (e.g >> 10000), test for your use case."
      },
      "tokenURI(uint256)": {
        "details": "See {IERC721Metadata-tokenURI}."
      },
      "totalReleased()": {
        "details": "Getter for the total amount of Ether already released."
      },
      "totalReleased(address)": {
        "details": "Getter for the total amount of `token` already released. `token` should be the address of an IERC20 contract."
      },
      "totalShares()": {
        "details": "Getter for the total shares held by payees."
      },
      "totalSupply()": {
        "details": "See {IERC721Enumerable-totalSupply}."
      },
      "transferFrom(address,address,uint256)": {
        "details": "See {IERC721-transferFrom}."
      }
    },
    "version": 1
  },
  "userdoc": {
    "kind": "user",
    "methods": {},
    "version": 1
  }
}