{
  "contractName": "MintPunks",
  "abi": [
    {
      "inputs": [],
      "stateMutability": "nonpayable",
      "type": "constructor"
    },
    {
      "anonymous": false,
      "inputs": [
        {
          "indexed": true,
          "internalType": "address",
          "name": "owner",
          "type": "address"
        },
        {
          "indexed": true,
          "internalType": "address",
          "name": "approved",
          "type": "address"
        },
        {
          "indexed": true,
          "internalType": "uint256",
          "name": "tokenId",
          "type": "uint256"
        }
      ],
      "name": "Approval",
      "type": "event"
    },
    {
      "anonymous": false,
      "inputs": [
        {
          "indexed": true,
          "internalType": "address",
          "name": "owner",
          "type": "address"
        },
        {
          "indexed": true,
          "internalType": "address",
          "name": "operator",
          "type": "address"
        },
        {
          "indexed": false,
          "internalType": "bool",
          "name": "approved",
          "type": "bool"
        }
      ],
      "name": "ApprovalForAll",
      "type": "event"
    },
    {
      "anonymous": false,
      "inputs": [
        {
          "indexed": true,
          "internalType": "address",
          "name": "from",
          "type": "address"
        },
        {
          "indexed": true,
          "internalType": "address",
          "name": "to",
          "type": "address"
        },
        {
          "indexed": true,
          "internalType": "uint256",
          "name": "tokenId",
          "type": "uint256"
        }
      ],
      "name": "Transfer",
      "type": "event"
    },
    {
      "inputs": [],
      "name": "MAX_PURCHASE",
      "outputs": [
        {
          "internalType": "uint128",
          "name": "",
          "type": "uint128"
        }
      ],
      "stateMutability": "view",
      "type": "function",
      "constant": true
    },
    {
      "inputs": [],
      "name": "MAX_SUPPLY",
      "outputs": [
        {
          "internalType": "uint128",
          "name": "",
          "type": "uint128"
        }
      ],
      "stateMutability": "view",
      "type": "function",
      "constant": true
    },
    {
      "inputs": [],
      "name": "TOKEN_PRICE",
      "outputs": [
        {
          "internalType": "uint256",
          "name": "",
          "type": "uint256"
        }
      ],
      "stateMutability": "view",
      "type": "function",
      "constant": true
    },
    {
      "inputs": [
        {
          "internalType": "address",
          "name": "to",
          "type": "address"
        },
        {
          "internalType": "uint256",
          "name": "tokenId",
          "type": "uint256"
        }
      ],
      "name": "approve",
      "outputs": [],
      "stateMutability": "nonpayable",
      "type": "function"
    },
    {
      "inputs": [
        {
          "internalType": "address",
          "name": "owner",
          "type": "address"
        }
      ],
      "name": "balanceOf",
      "outputs": [
        {
          "internalType": "uint256",
          "name": "",
          "type": "uint256"
        }
      ],
      "stateMutability": "view",
      "type": "function",
      "constant": true
    },
    {
      "inputs": [
        {
          "internalType": "uint256",
          "name": "tokenId",
          "type": "uint256"
        }
      ],
      "name": "getApproved",
      "outputs": [
        {
          "internalType": "address",
          "name": "",
          "type": "address"
        }
      ],
      "stateMutability": "view",
      "type": "function",
      "constant": true
    },
    {
      "inputs": [
        {
          "internalType": "address",
          "name": "owner",
          "type": "address"
        },
        {
          "internalType": "address",
          "name": "operator",
          "type": "address"
        }
      ],
      "name": "isApprovedForAll",
      "outputs": [
        {
          "internalType": "bool",
          "name": "",
          "type": "bool"
        }
      ],
      "stateMutability": "view",
      "type": "function",
      "constant": true
    },
    {
      "inputs": [],
      "name": "name",
      "outputs": [
        {
          "internalType": "string",
          "name": "",
          "type": "string"
        }
      ],
      "stateMutability": "view",
      "type": "function",
      "constant": true
    },
    {
      "inputs": [
        {
          "internalType": "uint256",
          "name": "tokenId",
          "type": "uint256"
        }
      ],
      "name": "ownerOf",
      "outputs": [
        {
          "internalType": "address",
          "name": "",
          "type": "address"
        }
      ],
      "stateMutability": "view",
      "type": "function",
      "constant": true
    },
    {
      "inputs": [
        {
          "internalType": "address",
          "name": "from",
          "type": "address"
        },
        {
          "internalType": "address",
          "name": "to",
          "type": "address"
        },
        {
          "internalType": "uint256",
          "name": "tokenId",
          "type": "uint256"
        }
      ],
      "name": "safeTransferFrom",
      "outputs": [],
      "stateMutability": "nonpayable",
      "type": "function"
    },
    {
      "inputs": [
        {
          "internalType": "address",
          "name": "from",
          "type": "address"
        },
        {
          "internalType": "address",
          "name": "to",
          "type": "address"
        },
        {
          "internalType": "uint256",
          "name": "tokenId",
          "type": "uint256"
        },
        {
          "internalType": "bytes",
          "name": "_data",
          "type": "bytes"
        }
      ],
      "name": "safeTransferFrom",
      "outputs": [],
      "stateMutability": "nonpayable",
      "type": "function"
    },
    {
      "inputs": [
        {
          "internalType": "address",
          "name": "operator",
          "type": "address"
        },
        {
          "internalType": "bool",
          "name": "approved",
          "type": "bool"
        }
      ],
      "name": "setApprovalForAll",
      "outputs": [],
      "stateMutability": "nonpayable",
      "type": "function"
    },
    {
      "inputs": [
        {
          "internalType": "bytes4",
          "name": "interfaceId",
          "type": "bytes4"
        }
      ],
      "name": "supportsInterface",
      "outputs": [
        {
          "internalType": "bool",
          "name": "",
          "type": "bool"
        }
      ],
      "stateMutability": "view",
      "type": "function",
      "constant": true
    },
    {
      "inputs": [],
      "name": "symbol",
      "outputs": [
        {
          "internalType": "string",
          "name": "",
          "type": "string"
        }
      ],
      "stateMutability": "view",
      "type": "function",
      "constant": true
    },
    {
      "inputs": [
        {
          "internalType": "uint256",
          "name": "index",
          "type": "uint256"
        }
      ],
      "name": "tokenByIndex",
      "outputs": [
        {
          "internalType": "uint256",
          "name": "",
          "type": "uint256"
        }
      ],
      "stateMutability": "view",
      "type": "function",
      "constant": true
    },
    {
      "inputs": [
        {
          "internalType": "address",
          "name": "owner",
          "type": "address"
        },
        {
          "internalType": "uint256",
          "name": "index",
          "type": "uint256"
        }
      ],
      "name": "tokenOfOwnerByIndex",
      "outputs": [
        {
          "internalType": "uint256",
          "name": "",
          "type": "uint256"
        }
      ],
      "stateMutability": "view",
      "type": "function",
      "constant": true
    },
    {
      "inputs": [
        {
          "internalType": "uint256",
          "name": "tokenId",
          "type": "uint256"
        }
      ],
      "name": "tokenURI",
      "outputs": [
        {
          "internalType": "string",
          "name": "",
          "type": "string"
        }
      ],
      "stateMutability": "view",
      "type": "function",
      "constant": true
    },
    {
      "inputs": [],
      "name": "totalSupply",
      "outputs": [
        {
          "internalType": "uint256",
          "name": "",
          "type": "uint256"
        }
      ],
      "stateMutability": "view",
      "type": "function",
      "constant": true
    },
    {
      "inputs": [
        {
          "internalType": "address",
          "name": "from",
          "type": "address"
        },
        {
          "internalType": "address",
          "name": "to",
          "type": "address"
        },
        {
          "internalType": "uint256",
          "name": "tokenId",
          "type": "uint256"
        }
      ],
      "name": "transferFrom",
      "outputs": [],
      "stateMutability": "nonpayable",
      "type": "function"
    },
    {
      "inputs": [],
      "name": "getSenderTest",
      "outputs": [
        {
          "internalType": "uint256",
          "name": "",
          "type": "uint256"
        }
      ],
      "stateMutability": "view",
      "type": "function",
      "constant": true
    },
    {
      "inputs": [
        {
          "internalType": "uint256",
          "name": "numberOfTokens",
          "type": "uint256"
        }
      ],
      "name": "presaleMint",
      "outputs": [],
      "stateMutability": "payable",
      "type": "function",
      "payable": true
    },
    {
      "inputs": [],
      "name": "totalSupp",
      "outputs": [
        {
          "internalType": "uint256",
          "name": "",
          "type": "uint256"
        }
      ],
      "stateMutability": "view",
      "type": "function",
      "constant": true
    },
    {
      "inputs": [
        {
          "internalType": "uint256",
          "name": "tokenId",
          "type": "uint256"
        }
      ],
      "name": "tokenURIData",
      "outputs": [
        {
          "internalType": "string",
          "name": "",
          "type": "string"
        }
      ],
      "stateMutability": "view",
      "type": "function",
      "constant": true
    },
    {
      "inputs": [],
      "name": "tokensOfOwner",
      "outputs": [
        {
          "internalType": "uint256[]",
          "name": "",
          "type": "uint256[]"
        }
      ],
      "stateMutability": "view",
      "type": "function",
      "constant": true
    }
  ],
  "bytecode": "0x60806040523480156200001157600080fd5b506040518060400160405280600b81526020017f5761676d692050756e6b730000000000000000000000000000000000000000008152506040518060400160405280600381526020017f5761500000000000000000000000000000000000000000000000000000000000815250816001908051906020019062000096929190620000ea565b508060029080519060200190620000af929190620000ea565b5050506040518060600160405280603b815260200162003801603b913960079080519060200190620000e3929190620000ea565b50620001ff565b828054620000f890620001c9565b90600052602060002090601f0160209004810192826200011c576000855562000168565b82601f106200013757805160ff191683800117855562000168565b8280016001018555821562000168579182015b82811115620001675782518255916020019190600101906200014a565b5b5090506200017791906200017b565b5090565b5b80821115620001965760008160009055506001016200017c565b5090565b7f4e487b7100000000000000000000000000000000000000000000000000000000600052602260045260246000fd5b60006002820490506001821680620001e257607f821691505b60208210811415620001f957620001f86200019a565b5b50919050565b6135f2806200020f6000396000f3fe60806040526004361061014b5760003560e01c806370a08231116100b6578063b88d4fde1161006f578063b88d4fde146104ba578063c87b56dd146104e3578063c9b298f114610520578063cdb012b91461053c578063d2d8cb6714610579578063e985e9c5146105a45761014b565b806370a08231146103a85780637146bd08146103e557806395d89b411461041057806395ea0f121461043b578063a22cb46514610466578063b7cd018b1461048f5761014b565b80632f745c59116101085780632f745c591461027257806332cb6b0c146102af57806342842e0e146102da5780634f6ccce7146103035780636352211e146103405780636e03a2921461037d5761014b565b806301ffc9a71461015057806306fdde031461018d578063081812fc146101b8578063095ea7b3146101f557806318160ddd1461021e57806323b872dd14610249575b600080fd5b34801561015c57600080fd5b50610177600480360381019061017291906121f3565b6105e1565b604051610184919061223b565b60405180910390f35b34801561019957600080fd5b506101a261072b565b6040516101af91906122ef565b60405180910390f35b3480156101c457600080fd5b506101df60048036038101906101da9190612347565b6107bd565b6040516101ec91906123b5565b60405180910390f35b34801561020157600080fd5b5061021c600480360381019061021791906123fc565b610842565b005b34801561022a57600080fd5b5061023361095b565b604051610240919061244b565b60405180910390f35b34801561025557600080fd5b50610270600480360381019061026b9190612466565b610964565b005b34801561027e57600080fd5b50610299600480360381019061029491906123fc565b610974565b6040516102a6919061244b565b60405180910390f35b3480156102bb57600080fd5b506102c4610b66565b6040516102d191906124e4565b60405180910390f35b3480156102e657600080fd5b5061030160048036038101906102fc9190612466565b610b6c565b005b34801561030f57600080fd5b5061032a60048036038101906103259190612347565b610b8c565b604051610337919061244b565b60405180910390f35b34801561034c57600080fd5b5061036760048036038101906103629190612347565b610bdf565b60405161037491906123b5565b60405180910390f35b34801561038957600080fd5b50610392610bf5565b60405161039f919061244b565b60405180910390f35b3480156103b457600080fd5b506103cf60048036038101906103ca91906124ff565b610c05565b6040516103dc919061244b565b60405180910390f35b3480156103f157600080fd5b506103fa610cee565b60405161040791906124e4565b60405180910390f35b34801561041c57600080fd5b50610425610cf3565b60405161043291906122ef565b60405180910390f35b34801561044757600080fd5b50610450610d85565b60405161045d91906125ea565b60405180910390f35b34801561047257600080fd5b5061048d60048036038101906104889190612638565b610ede565b005b34801561049b57600080fd5b506104a461105f565b6040516104b1919061244b565b60405180910390f35b3480156104c657600080fd5b506104e160048036038101906104dc91906127ad565b61106e565b005b3480156104ef57600080fd5b5061050a60048036038101906105059190612347565b6110ca565b60405161051791906122ef565b60405180910390f35b61053a60048036038101906105359190612347565b611172565b005b34801561054857600080fd5b50610563600480360381019061055e9190612347565b61119e565b60405161057091906122ef565b60405180910390f35b34801561058557600080fd5b5061058e6111b0565b60405161059b919061244b565b60405180910390f35b3480156105b057600080fd5b506105cb60048036038101906105c69190612830565b6111bb565b6040516105d8919061223b565b60405180910390f35b60007f80ac58cd000000000000000000000000000000000000000000000000000000007bffffffffffffffffffffffffffffffffffffffffffffffffffffffff1916827bffffffffffffffffffffffffffffffffffffffffffffffffffffffff191614806106ac57507f5b5e139f000000000000000000000000000000000000000000000000000000007bffffffffffffffffffffffffffffffffffffffffffffffffffffffff1916827bffffffffffffffffffffffffffffffffffffffffffffffffffffffff1916145b8061071457507f780e9d63000000000000000000000000000000000000000000000000000000007bffffffffffffffffffffffffffffffffffffffffffffffffffffffff1916827bffffffffffffffffffffffffffffffffffffffffffffffffffffffff1916145b8061072457506107238261124f565b5b9050919050565b60606001805461073a9061289f565b80601f01602080910402602001604051908101604052809291908181526020018280546107669061289f565b80156107b35780601f10610788576101008083540402835291602001916107b3565b820191906000526020600020905b81548152906001019060200180831161079657829003601f168201915b5050505050905090565b60006107c8826112b9565b610807576040517f08c379a00000000000000000000000000000000000000000000000000000000081526004016107fe90612943565b60405180910390fd5b6005600083815260200190815260200160002060009054906101000a900473ffffffffffffffffffffffffffffffffffffffff169050919050565b600061084d82610bdf565b90508073ffffffffffffffffffffffffffffffffffffffff168373ffffffffffffffffffffffffffffffffffffffff1614156108be576040517f08c379a00000000000000000000000000000000000000000000000000000000081526004016108b5906129d5565b60405180910390fd5b8073ffffffffffffffffffffffffffffffffffffffff166108dd6112c6565b73ffffffffffffffffffffffffffffffffffffffff16148061090c575061090b816109066112c6565b6111bb565b5b61094b576040517f08c379a000000000000000000000000000000000000000000000000000000000815260040161094290612a67565b60405180910390fd5b6109568383836112ce565b505050565b60008054905090565b61096f838383611380565b505050565b600061097f83610c05565b82106109c0576040517f08c379a00000000000000000000000000000000000000000000000000000000081526004016109b790612af9565b60405180910390fd5b60006109ca61095b565b905060008060005b83811015610b24576000600360008381526020019081526020016000206040518060400160405290816000820160009054906101000a900473ffffffffffffffffffffffffffffffffffffffff1673ffffffffffffffffffffffffffffffffffffffff1673ffffffffffffffffffffffffffffffffffffffff1681526020016000820160149054906101000a900467ffffffffffffffff1667ffffffffffffffff1667ffffffffffffffff16815250509050600073ffffffffffffffffffffffffffffffffffffffff16816000015173ffffffffffffffffffffffffffffffffffffffff1614610ac457806000015192505b8773ffffffffffffffffffffffffffffffffffffffff168373ffffffffffffffffffffffffffffffffffffffff161415610b165786841415610b0d578195505050505050610b60565b83806001019450505b5080806001019150506109d2565b506040517f08c379a0000000000000000000000000000000000000000000000000000000008152600401610b5790612b8b565b60405180910390fd5b92915050565b611b3981565b610b878383836040518060200160405280600081525061106e565b505050565b6000610b9661095b565b8210610bd7576040517f08c379a0000000000000000000000000000000000000000000000000000000008152600401610bce90612c1d565b60405180910390fd5b819050919050565b6000610bea826118c0565b600001519050919050565b6000610c0033610c05565b905090565b60008073ffffffffffffffffffffffffffffffffffffffff168273ffffffffffffffffffffffffffffffffffffffff161415610c76576040517f08c379a0000000000000000000000000000000000000000000000000000000008152600401610c6d90612caf565b60405180910390fd5b600460008373ffffffffffffffffffffffffffffffffffffffff1673ffffffffffffffffffffffffffffffffffffffff16815260200190815260200160002060000160009054906101000a90046fffffffffffffffffffffffffffffffff166fffffffffffffffffffffffffffffffff169050919050565b601481565b606060028054610d029061289f565b80601f0160208091040260200160405190810160405280929190818152602001828054610d2e9061289f565b8015610d7b5780601f10610d5057610100808354040283529160200191610d7b565b820191906000526020600020905b815481529060010190602001808311610d5e57829003601f168201915b5050505050905090565b60606000610d9233610c05565b90506000811415610def57600067ffffffffffffffff811115610db857610db7612682565b5b604051908082528060200260200182016040528015610de65781602001602082028036833780820191505090505b50915050610edb565b60008167ffffffffffffffff811115610e0b57610e0a612682565b5b604051908082528060200260200182016040528015610e395781602001602082028036833780820191505090505b5090506000610e4661095b565b90506000805b82811015610ed2573373ffffffffffffffffffffffffffffffffffffffff16610e7482610bdf565b73ffffffffffffffffffffffffffffffffffffffff161415610ebf5780848381518110610ea457610ea3612ccf565b5b6020026020010181815250508180610ebb90612d2d565b9250505b8080610eca90612d2d565b915050610e4c565b83955050505050505b90565b610ee66112c6565b73ffffffffffffffffffffffffffffffffffffffff168273ffffffffffffffffffffffffffffffffffffffff161415610f54576040517f08c379a0000000000000000000000000000000000000000000000000000000008152600401610f4b90612dc2565b60405180910390fd5b8060066000610f616112c6565b73ffffffffffffffffffffffffffffffffffffffff1673ffffffffffffffffffffffffffffffffffffffff16815260200190815260200160002060008473ffffffffffffffffffffffffffffffffffffffff1673ffffffffffffffffffffffffffffffffffffffff16815260200190815260200160002060006101000a81548160ff0219169083151502179055508173ffffffffffffffffffffffffffffffffffffffff1661100e6112c6565b73ffffffffffffffffffffffffffffffffffffffff167f17307eab39ab6107e8899845ad3d59bd9653f200f220920489ca2b5937696c3183604051611053919061223b565b60405180910390a35050565b600061106961095b565b905090565b611079848484611380565b61108584848484611a5a565b6110c4576040517f08c379a00000000000000000000000000000000000000000000000000000000081526004016110bb90612e54565b60405180910390fd5b50505050565b60606110d5826112b9565b611114576040517f08c379a000000000000000000000000000000000000000000000000000000000815260040161110b90612ee6565b60405180910390fd5b600061111e611be2565b905060008151141561113f576040518060200160405280600081525061116a565b8061114984611bf9565b60405160200161115a929190612f42565b6040516020818303038152906040525b915050919050565b600061118e82662386f26fc10000611d5a90919063ffffffff16565b905061119a3383611d70565b5050565b60606111a9826110ca565b9050919050565b662386f26fc1000081565b6000600660008473ffffffffffffffffffffffffffffffffffffffff1673ffffffffffffffffffffffffffffffffffffffff16815260200190815260200160002060008373ffffffffffffffffffffffffffffffffffffffff1673ffffffffffffffffffffffffffffffffffffffff16815260200190815260200160002060009054906101000a900460ff16905092915050565b60007f01ffc9a7000000000000000000000000000000000000000000000000000000007bffffffffffffffffffffffffffffffffffffffffffffffffffffffff1916827bffffffffffffffffffffffffffffffffffffffffffffffffffffffff1916149050919050565b6000805482109050919050565b600033905090565b826005600084815260200190815260200160002060006101000a81548173ffffffffffffffffffffffffffffffffffffffff021916908373ffffffffffffffffffffffffffffffffffffffff160217905550818373ffffffffffffffffffffffffffffffffffffffff168273ffffffffffffffffffffffffffffffffffffffff167f8c5be1e5ebec7d5bd14f71427d1e84f3dd0314c0f7b2291e5b200ac8c7c3b92560405160405180910390a4505050565b600061138b826118c0565b90506000816000015173ffffffffffffffffffffffffffffffffffffffff166113b26112c6565b73ffffffffffffffffffffffffffffffffffffffff16148061140e57506113d76112c6565b73ffffffffffffffffffffffffffffffffffffffff166113f6846107bd565b73ffffffffffffffffffffffffffffffffffffffff16145b8061142a575061142982600001516114246112c6565b6111bb565b5b90508061146c576040517f08c379a000000000000000000000000000000000000000000000000000000000815260040161146390612fd8565b60405180910390fd5b8473ffffffffffffffffffffffffffffffffffffffff16826000015173ffffffffffffffffffffffffffffffffffffffff16146114de576040517f08c379a00000000000000000000000000000000000000000000000000000000081526004016114d59061306a565b60405180910390fd5b600073ffffffffffffffffffffffffffffffffffffffff168473ffffffffffffffffffffffffffffffffffffffff16141561154e576040517f08c379a0000000000000000000000000000000000000000000000000000000008152600401611545906130fc565b60405180910390fd5b61155b8585856001611d8e565b61156b60008484600001516112ce565b6001600460008773ffffffffffffffffffffffffffffffffffffffff1673ffffffffffffffffffffffffffffffffffffffff16815260200190815260200160002060000160008282829054906101000a90046fffffffffffffffffffffffffffffffff160392506101000a8154816fffffffffffffffffffffffffffffffff02191690836fffffffffffffffffffffffffffffffff1602179055506001600460008673ffffffffffffffffffffffffffffffffffffffff1673ffffffffffffffffffffffffffffffffffffffff16815260200190815260200160002060000160008282829054906101000a90046fffffffffffffffffffffffffffffffff160192506101000a8154816fffffffffffffffffffffffffffffffff02191690836fffffffffffffffffffffffffffffffff160217905550836003600085815260200190815260200160002060000160006101000a81548173ffffffffffffffffffffffffffffffffffffffff021916908373ffffffffffffffffffffffffffffffffffffffff160217905550426003600085815260200190815260200160002060000160146101000a81548167ffffffffffffffff021916908367ffffffffffffffff1602179055506000600184019050600073ffffffffffffffffffffffffffffffffffffffff166003600083815260200190815260200160002060000160009054906101000a900473ffffffffffffffffffffffffffffffffffffffff1673ffffffffffffffffffffffffffffffffffffffff161415611850576117af816112b9565b1561184f5782600001516003600083815260200190815260200160002060000160006101000a81548173ffffffffffffffffffffffffffffffffffffffff021916908373ffffffffffffffffffffffffffffffffffffffff16021790555082602001516003600083815260200190815260200160002060000160146101000a81548167ffffffffffffffff021916908367ffffffffffffffff1602179055505b5b50828473ffffffffffffffffffffffffffffffffffffffff168673ffffffffffffffffffffffffffffffffffffffff167fddf252ad1be2c89b69c2b068fc378daa952ba7f163c4a11628f55a4df523b3ef60405160405180910390a46118b98585856001611d94565b5050505050565b6118c861214d565b6118d1826112b9565b611910576040517f08c379a00000000000000000000000000000000000000000000000000000000081526004016119079061318e565b60405180910390fd5b60008290505b60008110611a19576000600360008381526020019081526020016000206040518060400160405290816000820160009054906101000a900473ffffffffffffffffffffffffffffffffffffffff1673ffffffffffffffffffffffffffffffffffffffff1673ffffffffffffffffffffffffffffffffffffffff1681526020016000820160149054906101000a900467ffffffffffffffff1667ffffffffffffffff1667ffffffffffffffff16815250509050600073ffffffffffffffffffffffffffffffffffffffff16816000015173ffffffffffffffffffffffffffffffffffffffff1614611a0a578092505050611a55565b50808060019003915050611916565b506040517f08c379a0000000000000000000000000000000000000000000000000000000008152600401611a4c90613220565b60405180910390fd5b919050565b6000611a7b8473ffffffffffffffffffffffffffffffffffffffff16611d9a565b15611bd5578373ffffffffffffffffffffffffffffffffffffffff1663150b7a02611aa46112c6565b8786866040518563ffffffff1660e01b8152600401611ac69493929190613295565b6020604051808303816000875af1925050508015611b0257506040513d601f19601f82011682018060405250810190611aff91906132f6565b60015b611b85573d8060008114611b32576040519150601f19603f3d011682016040523d82523d6000602084013e611b37565b606091505b50600081511415611b7d576040517f08c379a0000000000000000000000000000000000000000000000000000000008152600401611b7490612e54565b60405180910390fd5b805181602001fd5b63150b7a0260e01b7bffffffffffffffffffffffffffffffffffffffffffffffffffffffff1916817bffffffffffffffffffffffffffffffffffffffffffffffffffffffff191614915050611bda565b600190505b949350505050565b606060405180602001604052806000815250905090565b60606000821415611c41576040518060400160405280600181526020017f30000000000000000000000000000000000000000000000000000000000000008152509050611d55565b600082905060005b60008214611c73578080611c5c90612d2d565b915050600a82611c6c9190613352565b9150611c49565b60008167ffffffffffffffff811115611c8f57611c8e612682565b5b6040519080825280601f01601f191660200182016040528015611cc15781602001600182028036833780820191505090505b5090505b60008514611d4e57600182611cda9190613383565b9150600a85611ce991906133b7565b6030611cf591906133e8565b60f81b818381518110611d0b57611d0a612ccf565b5b60200101907effffffffffffffffffffffffffffffffffffffffffffffffffffffffffffff1916908160001a905350600a85611d479190613352565b9450611cc5565b8093505050505b919050565b60008183611d68919061343e565b905092915050565b611d8a828260405180602001604052806000815250611dbd565b5050565b50505050565b50505050565b6000808273ffffffffffffffffffffffffffffffffffffffff163b119050919050565b611dca8383836001611dcf565b505050565b600080549050600073ffffffffffffffffffffffffffffffffffffffff168573ffffffffffffffffffffffffffffffffffffffff161415611e45576040517f08c379a0000000000000000000000000000000000000000000000000000000008152600401611e3c9061350a565b60405180910390fd5b6000841415611e89576040517f08c379a0000000000000000000000000000000000000000000000000000000008152600401611e809061359c565b60405180910390fd5b611e966000868387611d8e565b83600460008773ffffffffffffffffffffffffffffffffffffffff1673ffffffffffffffffffffffffffffffffffffffff16815260200190815260200160002060000160008282829054906101000a90046fffffffffffffffffffffffffffffffff160192506101000a8154816fffffffffffffffffffffffffffffffff02191690836fffffffffffffffffffffffffffffffff16021790555083600460008773ffffffffffffffffffffffffffffffffffffffff1673ffffffffffffffffffffffffffffffffffffffff16815260200190815260200160002060000160108282829054906101000a90046fffffffffffffffffffffffffffffffff160192506101000a8154816fffffffffffffffffffffffffffffffff02191690836fffffffffffffffffffffffffffffffff160217905550846003600083815260200190815260200160002060000160006101000a81548173ffffffffffffffffffffffffffffffffffffffff021916908373ffffffffffffffffffffffffffffffffffffffff160217905550426003600083815260200190815260200160002060000160146101000a81548167ffffffffffffffff021916908367ffffffffffffffff160217905550600081905060005b8581101561213057818773ffffffffffffffffffffffffffffffffffffffff16600073ffffffffffffffffffffffffffffffffffffffff167fddf252ad1be2c89b69c2b068fc378daa952ba7f163c4a11628f55a4df523b3ef60405160405180910390a4831561211b576120db6000888488611a5a565b61211a576040517f08c379a000000000000000000000000000000000000000000000000000000000815260040161211190612e54565b60405180910390fd5b5b81806001019250508080600101915050612064565b5080600081905550506121466000868387611d94565b5050505050565b6040518060400160405280600073ffffffffffffffffffffffffffffffffffffffff168152602001600067ffffffffffffffff1681525090565b6000604051905090565b600080fd5b600080fd5b60007fffffffff0000000000000000000000000000000000000000000000000000000082169050919050565b6121d08161219b565b81146121db57600080fd5b50565b6000813590506121ed816121c7565b92915050565b60006020828403121561220957612208612191565b5b6000612217848285016121de565b91505092915050565b60008115159050919050565b61223581612220565b82525050565b6000602082019050612250600083018461222c565b92915050565b600081519050919050565b600082825260208201905092915050565b60005b83811015612290578082015181840152602081019050612275565b8381111561229f576000848401525b50505050565b6000601f19601f8301169050919050565b60006122c182612256565b6122cb8185612261565b93506122db818560208601612272565b6122e4816122a5565b840191505092915050565b6000602082019050818103600083015261230981846122b6565b905092915050565b6000819050919050565b61232481612311565b811461232f57600080fd5b50565b6000813590506123418161231b565b92915050565b60006020828403121561235d5761235c612191565b5b600061236b84828501612332565b91505092915050565b600073ffffffffffffffffffffffffffffffffffffffff82169050919050565b600061239f82612374565b9050919050565b6123af81612394565b82525050565b60006020820190506123ca60008301846123a6565b92915050565b6123d981612394565b81146123e457600080fd5b50565b6000813590506123f6816123d0565b92915050565b6000806040838503121561241357612412612191565b5b6000612421858286016123e7565b925050602061243285828601612332565b9150509250929050565b61244581612311565b82525050565b6000602082019050612460600083018461243c565b92915050565b60008060006060848603121561247f5761247e612191565b5b600061248d868287016123e7565b935050602061249e868287016123e7565b92505060406124af86828701612332565b9150509250925092565b60006fffffffffffffffffffffffffffffffff82169050919050565b6124de816124b9565b82525050565b60006020820190506124f960008301846124d5565b92915050565b60006020828403121561251557612514612191565b5b6000612523848285016123e7565b91505092915050565b600081519050919050565b600082825260208201905092915050565b6000819050602082019050919050565b61256181612311565b82525050565b60006125738383612558565b60208301905092915050565b6000602082019050919050565b60006125978261252c565b6125a18185612537565b93506125ac83612548565b8060005b838110156125dd5781516125c48882612567565b97506125cf8361257f565b9250506001810190506125b0565b5085935050505092915050565b60006020820190508181036000830152612604818461258c565b905092915050565b61261581612220565b811461262057600080fd5b50565b6000813590506126328161260c565b92915050565b6000806040838503121561264f5761264e612191565b5b600061265d858286016123e7565b925050602061266e85828601612623565b9150509250929050565b600080fd5b600080fd5b7f4e487b7100000000000000000000000000000000000000000000000000000000600052604160045260246000fd5b6126ba826122a5565b810181811067ffffffffffffffff821117156126d9576126d8612682565b5b80604052505050565b60006126ec612187565b90506126f882826126b1565b919050565b600067ffffffffffffffff82111561271857612717612682565b5b612721826122a5565b9050602081019050919050565b82818337600083830152505050565b600061275061274b846126fd565b6126e2565b90508281526020810184848401111561276c5761276b61267d565b5b61277784828561272e565b509392505050565b600082601f83011261279457612793612678565b5b81356127a484826020860161273d565b91505092915050565b600080600080608085870312156127c7576127c6612191565b5b60006127d5878288016123e7565b94505060206127e6878288016123e7565b93505060406127f787828801612332565b925050606085013567ffffffffffffffff81111561281857612817612196565b5b6128248782880161277f565b91505092959194509250565b6000806040838503121561284757612846612191565b5b6000612855858286016123e7565b9250506020612866858286016123e7565b9150509250929050565b7f4e487b7100000000000000000000000000000000000000000000000000000000600052602260045260246000fd5b600060028204905060018216806128b757607f821691505b602082108114156128cb576128ca612870565b5b50919050565b7f455243373231413a20617070726f76656420717565727920666f72206e6f6e6560008201527f78697374656e7420746f6b656e00000000000000000000000000000000000000602082015250565b600061292d602d83612261565b9150612938826128d1565b604082019050919050565b6000602082019050818103600083015261295c81612920565b9050919050565b7f455243373231413a20617070726f76616c20746f2063757272656e74206f776e60008201527f6572000000000000000000000000000000000000000000000000000000000000602082015250565b60006129bf602283612261565b91506129ca82612963565b604082019050919050565b600060208201905081810360008301526129ee816129b2565b9050919050565b7f455243373231413a20617070726f76652063616c6c6572206973206e6f74206f60008201527f776e6572206e6f7220617070726f76656420666f7220616c6c00000000000000602082015250565b6000612a51603983612261565b9150612a5c826129f5565b604082019050919050565b60006020820190508181036000830152612a8081612a44565b9050919050565b7f455243373231413a206f776e657220696e646578206f7574206f6620626f756e60008201527f6473000000000000000000000000000000000000000000000000000000000000602082015250565b6000612ae3602283612261565b9150612aee82612a87565b604082019050919050565b60006020820190508181036000830152612b1281612ad6565b9050919050565b7f455243373231413a20756e61626c6520746f2067657420746f6b656e206f662060008201527f6f776e657220627920696e646578000000000000000000000000000000000000602082015250565b6000612b75602e83612261565b9150612b8082612b19565b604082019050919050565b60006020820190508181036000830152612ba481612b68565b9050919050565b7f455243373231413a20676c6f62616c20696e646578206f7574206f6620626f7560008201527f6e64730000000000000000000000000000000000000000000000000000000000602082015250565b6000612c07602383612261565b9150612c1282612bab565b604082019050919050565b60006020820190508181036000830152612c3681612bfa565b9050919050565b7f455243373231413a2062616c616e636520717565727920666f7220746865207a60008201527f65726f2061646472657373000000000000000000000000000000000000000000602082015250565b6000612c99602b83612261565b9150612ca482612c3d565b604082019050919050565b60006020820190508181036000830152612cc881612c8c565b9050919050565b7f4e487b7100000000000000000000000000000000000000000000000000000000600052603260045260246000fd5b7f4e487b7100000000000000000000000000000000000000000000000000000000600052601160045260246000fd5b6000612d3882612311565b91507fffffffffffffffffffffffffffffffffffffffffffffffffffffffffffffffff821415612d6b57612d6a612cfe565b5b600182019050919050565b7f455243373231413a20617070726f766520746f2063616c6c6572000000000000600082015250565b6000612dac601a83612261565b9150612db782612d76565b602082019050919050565b60006020820190508181036000830152612ddb81612d9f565b9050919050565b7f455243373231413a207472616e7366657220746f206e6f6e204552433732315260008201527f6563656976657220696d706c656d656e74657200000000000000000000000000602082015250565b6000612e3e603383612261565b9150612e4982612de2565b604082019050919050565b60006020820190508181036000830152612e6d81612e31565b9050919050565b7f4552433732314d657461646174613a2055524920717565727920666f72206e6f60008201527f6e6578697374656e7420746f6b656e0000000000000000000000000000000000602082015250565b6000612ed0602f83612261565b9150612edb82612e74565b604082019050919050565b60006020820190508181036000830152612eff81612ec3565b9050919050565b600081905092915050565b6000612f1c82612256565b612f268185612f06565b9350612f36818560208601612272565b80840191505092915050565b6000612f4e8285612f11565b9150612f5a8284612f11565b91508190509392505050565b7f455243373231413a207472616e736665722063616c6c6572206973206e6f742060008201527f6f776e6572206e6f7220617070726f7665640000000000000000000000000000602082015250565b6000612fc2603283612261565b9150612fcd82612f66565b604082019050919050565b60006020820190508181036000830152612ff181612fb5565b9050919050565b7f455243373231413a207472616e736665722066726f6d20696e636f727265637460008201527f206f776e65720000000000000000000000000000000000000000000000000000602082015250565b6000613054602683612261565b915061305f82612ff8565b604082019050919050565b6000602082019050818103600083015261308381613047565b9050919050565b7f455243373231413a207472616e7366657220746f20746865207a65726f20616460008201527f6472657373000000000000000000000000000000000000000000000000000000602082015250565b60006130e6602583612261565b91506130f18261308a565b604082019050919050565b60006020820190508181036000830152613115816130d9565b9050919050565b7f455243373231413a206f776e657220717565727920666f72206e6f6e6578697360008201527f74656e7420746f6b656e00000000000000000000000000000000000000000000602082015250565b6000613178602a83612261565b91506131838261311c565b604082019050919050565b600060208201905081810360008301526131a78161316b565b9050919050565b7f455243373231413a20756e61626c6520746f2064657465726d696e652074686560008201527f206f776e6572206f6620746f6b656e0000000000000000000000000000000000602082015250565b600061320a602f83612261565b9150613215826131ae565b604082019050919050565b60006020820190508181036000830152613239816131fd565b9050919050565b600081519050919050565b600082825260208201905092915050565b600061326782613240565b613271818561324b565b9350613281818560208601612272565b61328a816122a5565b840191505092915050565b60006080820190506132aa60008301876123a6565b6132b760208301866123a6565b6132c4604083018561243c565b81810360608301526132d6818461325c565b905095945050505050565b6000815190506132f0816121c7565b92915050565b60006020828403121561330c5761330b612191565b5b600061331a848285016132e1565b91505092915050565b7f4e487b7100000000000000000000000000000000000000000000000000000000600052601260045260246000fd5b600061335d82612311565b915061336883612311565b92508261337857613377613323565b5b828204905092915050565b600061338e82612311565b915061339983612311565b9250828210156133ac576133ab612cfe565b5b828203905092915050565b60006133c282612311565b91506133cd83612311565b9250826133dd576133dc613323565b5b828206905092915050565b60006133f382612311565b91506133fe83612311565b9250827fffffffffffffffffffffffffffffffffffffffffffffffffffffffffffffffff0382111561343357613432612cfe565b5b828201905092915050565b600061344982612311565b915061345483612311565b9250817fffffffffffffffffffffffffffffffffffffffffffffffffffffffffffffffff048311821515161561348d5761348c612cfe565b5b828202905092915050565b7f455243373231413a206d696e7420746f20746865207a65726f2061646472657360008201527f7300000000000000000000000000000000000000000000000000000000000000602082015250565b60006134f4602183612261565b91506134ff82613498565b604082019050919050565b60006020820190508181036000830152613523816134e7565b9050919050565b7f455243373231413a207175616e74697479206d7573742062652067726561746560008201527f72207468616e2030000000000000000000000000000000000000000000000000602082015250565b6000613586602883612261565b91506135918261352a565b604082019050919050565b600060208201905081810360008301526135b581613579565b905091905056fea264697066735822122015ee3d855b17e98ca3153da77be7b147c483ef38d0697fcd709ad44d5945773c64736f6c634300080b0033433a2f55736572732f6c77696b626572672f446f63756d656e74732f6465762f45676e612070726f6a656b742f4e4654732f4d657461646174612f",
  "immutableReferences": {},
  "source": "// SPDX-License-Identifier: MIT\r\npragma solidity >=0.4.21 <8.10.0;\r\n\r\nimport \"erc721a/contracts/ERC721A.sol\";\r\nimport \"@openzeppelin/contracts/utils/math/SafeMath.sol\";\r\n\r\ncontract MintPunks is ERC721A {\r\n    using SafeMath for uint256;\r\n\r\n    uint256 public constant TOKEN_PRICE = 0.01 ether;\r\n    uint128 public constant MAX_SUPPLY = 6969;\r\n    uint128 public constant MAX_PURCHASE = 20;\r\n    string private baseTokenUri;\r\n\r\n    constructor() ERC721A(\"Wagmi Punks\", \"WaP\") {\r\n        baseTokenUri = \"C:/Users/lwikberg/Documents/dev/Egna projekt/NFTs/Metadata/\";\r\n    }\r\n\r\n    function getSenderTest() public view returns (uint256) {\r\n        return balanceOf(msg.sender);\r\n    }\r\n\r\n    function presaleMint(uint256 numberOfTokens) public payable {\r\n        uint256 totalCost = TOKEN_PRICE.mul(numberOfTokens);\r\n        _safeMint(msg.sender, numberOfTokens);\r\n    }\r\n\r\n    function totalSupp() public view returns (uint256) {\r\n        return totalSupply();\r\n    }\r\n\r\n    function tokenURIData(uint256 tokenId) public view returns (string memory) {\r\n        return tokenURI(tokenId);\r\n    }\r\n\r\n    function tokensOfOwner() public view returns (uint256[] memory) {\r\n        uint256 tokenCount = balanceOf(msg.sender);\r\n\r\n        if (tokenCount == 0) {\r\n            // Return an empty array\r\n            return new uint256[](0);\r\n        } else {\r\n            uint256[] memory result = new uint256[](tokenCount);\r\n            uint256 totalPunks = totalSupply();\r\n            uint256 resultIndex = 0;\r\n\r\n            // We count on the fact that all cats have IDs starting at 1 and increasing\r\n            // sequentially up to the totalCat count.\r\n            uint256 punkId;\r\n\r\n            for (punkId = 0; punkId < totalPunks; punkId++) {\r\n                if (ownerOf(punkId) == msg.sender) {\r\n                    result[resultIndex] = punkId;\r\n                    resultIndex++;\r\n                }\r\n            }\r\n\r\n            return result;\r\n        }\r\n    }\r\n}\r\n",
  "sourcePath": "C:\\Users\\lwikberg\\Documents\\dev\\Egna projekt\\Punks\\contracts\\MintPunks.sol",
  "compiler": {
    "name": "solc",
    "version": "0.8.11+commit.d7f03943.Emscripten.clang"
  },
  "schemaVersion": "3.4.4",
  "updatedAt": "2022-02-14T19:45:32.232Z",
  "networkType": "ethereum",
  "devdoc": {
    "kind": "dev",
    "methods": {
      "approve(address,uint256)": {
        "details": "See {IERC721-approve}."
      },
      "balanceOf(address)": {
        "details": "See {IERC721-balanceOf}."
      },
      "getApproved(uint256)": {
        "details": "See {IERC721-getApproved}."
      },
      "isApprovedForAll(address,address)": {
        "details": "See {IERC721-isApprovedForAll}."
      },
      "name()": {
        "details": "See {IERC721Metadata-name}."
      },
      "ownerOf(uint256)": {
        "details": "See {IERC721-ownerOf}."
      },
      "safeTransferFrom(address,address,uint256)": {
        "details": "See {IERC721-safeTransferFrom}."
      },
      "safeTransferFrom(address,address,uint256,bytes)": {
        "details": "See {IERC721-safeTransferFrom}."
      },
      "setApprovalForAll(address,bool)": {
        "details": "See {IERC721-setApprovalForAll}."
      },
      "supportsInterface(bytes4)": {
        "details": "See {IERC165-supportsInterface}."
      },
      "symbol()": {
        "details": "See {IERC721Metadata-symbol}."
      },
      "tokenByIndex(uint256)": {
        "details": "See {IERC721Enumerable-tokenByIndex}."
      },
      "tokenOfOwnerByIndex(address,uint256)": {
        "details": "See {IERC721Enumerable-tokenOfOwnerByIndex}. This read function is O(totalSupply). If calling from a separate contract, be sure to test gas first. It may also degrade with extremely large collection sizes (e.g >> 10000), test for your use case."
      },
      "tokenURI(uint256)": {
        "details": "See {IERC721Metadata-tokenURI}."
      },
      "totalSupply()": {
        "details": "See {IERC721Enumerable-totalSupply}."
      },
      "transferFrom(address,address,uint256)": {
        "details": "See {IERC721-transferFrom}."
      }
    },
    "version": 1
  },
  "userdoc": {
    "kind": "user",
    "methods": {},
    "version": 1
  }
}